:0400000002001132B7
:03000B000203A449
:20006A00E4F524F525F526F527F528F529F52AF52DF52E752F01F543F548F549F54A754B32
:03008A0001F54C31
:0300970002000E56
:03000E00020111DB
:20009A0075B1677E007F01EE24FFFCEF34FFFD8C068D07EC4D70F0E5B130E7FB75B2882257
:2000BA00759850758920758DDCD28E438E10438780D29943A4012275FFDE75FFAD12009AAE
:2000DA001200BA43E10443E34022AF8210990280FB8F992210980280FB8599821200E485A9
:2000FA009982222098057582FF800BC2988599821200E4859982221200D1120347120370F5
:20011A001203767582201200E47453C0E0740CC0E07480C0E012060415811581158112031F
:20013A005F745DC0E0740CC0E07480C0E01206041581158115811200EEE582F5223395E01D
:20015A00F5237543007545007546007547001203C574FD2545500302022974FD254640F142
:20017A00752800754400C3E52864808544F063F08095F0404920963FE5442430F98782123B
:20019A0002A9858247E5442430F987077E00C007C0067469C0E0740CC0E07480C0E01206F4
:2001BA0004E58124FBF581E54760040543800B1202A175280B800712027C054480A80528B1
:2001DA00C3E5286480948A409AE5462448F98707E5432FF7E5462448F987077E00AC437DE5
:2001FA0000AA467B00C007C006C004C005C002C0037476C0E0740CC0E07480C0E012060485
:20021A00E58124F7F58175430012028D020174AE4A7F00AC497D00AA487B00C006C007C05A
:20023A0004C005C002C00374A7C0E0740CC0E07480C0E0120604E58124F7F5811204D9C223
:20025A008C74E1C0E0740CC0E07480C0E01206041581158115813096FD209603020138803A
:20027A00F822C2A112033612035FC2A312033612035F22C2B4C2B3C2B0C2B1120336D2B441
:20029A00D2B3D2B0D2B122C2A5120336D2A522AF82C007120309120336D0078F821202BB35
:2002BA0022AF82BF0002800FBF01028017BF0202801FBF03368027209005758201802F7556
:2002DA008200802A2092057582018022758200801D20940575820180157582008010209670
:2002FA00057582018008758200800375820022AF82C2B4C2B3C2B0C2B1BF0002800FBF01BB
:20031A0002800EBF0202800DBF0310800CC2B4800AC2B38006C2B08002C2B122E4F524F50F
:20033A0025C3E5249452E525940140F52243A7F853A7FCAFB074034FF5B053A6FEAFA0747A
:20035A00014FF5A022D2A3D2A122C28CE4F58AF58CF524F5252243A802D2AF22858E8E5367
:20037A0089F0C28CE4F58AF58C2275D10375AA8043AB01228582ACAFAA74DF5FF5AA43AA53
:20039A0010E5AA30E5FB859C8222C0E0C0D074012524F524E43525F525D0D0D0E0321204D8
:2003BA00DA750E04750F00120C1922750E03750F00852282852383120C19AE82AF838E2C34
:2003DA00752900C374898529F063F08095F0401E1203B885822BE52CB52B081203B8858285
:2003FA002B80F3E5292430F8A62B052980D5C3E5296480948A5031E5292430F987077E00DC
:20041A00E529FC3395E0FDC007C006C004C0057404C0E0740DC0E07480C0E0120604E581AE
:20043A0024F9F581052980C622752900752A00E52975F003A4243AFF252AF87600052AC316
:20045A007482852AF063F08095F050E30529C374828529F063F08095F050D1752900C3748F
:20047A00898529F063F08095F0400BE5292430F87600052980E8221204431204DA90000037
:20049A0022852426852527E524C39526FEE5259527FFC3EE9404EF940040EC22D28C22C2DA
:2004BA008C309604D2A180F922D2A1C2A3052D12049B22C2A1D2A3C2A512049BD2A5222236
:200C53000D0A53746172740D0A000D506C61792067616D650A000D636F727265637420259A
:200C7300690A00706C6179657220256920736F72652074686973207475726E20776173208E
:200C930025692C20746F74616C2073636F72652025690A000D506C6179657220312073638E
:200CB3006F72652025692C20506C6179657220322073636F72652025692C20506C617965F1
:200CD3007220332073636F72652025690A000D546F67676C6520736C6964207377697463C3
:200CF3006820746F20706C617920616761696E0A000D52616E642025692069732025690A82
:010D130000DF
:0A008D00750801E4F509F50AF50B0A
:2004DA0085080E85090F850A10850B11904E6D75F0C67441120525AC82AD83AEF0FF74397B
:2004FA002CF50874303DF509E43EF50AE43FF50BAC0AAD0B8C82747F5DF58322AE82AF83CE
:0B051A008E088F09750A00750B002287
:06004000E478FFF6D8FD94
:20001E007900E94400601B7A00900D1F780175AF00E493F2A308B8000205AFD9F4DAF2753E
:02003E00AFFF12
:20052500AAF0FBE582850EF0A4FCADF0E583850EF0A42DFDE435F0FEE582850FF0A42DFD81
:20054500E5F03EFEE433FFEA850EF0A42EFEE5F03FFFE583850FF0A42EFEE5F03FFFE582E9
:200565008510F0A42EFEE5F03FFFEB850EF0A42FFFEA850FF0A42FFFE5838510F0A42FFFCF
:0E058500E5828511F0A42F8EF08D838C8222EA
:20059300E50E450F60467A01E50E25E0F50EE50F334012F50FE582950EE583950F40030A05
:2005B30080E6C3E50F13F50FE50E13F50EC3E582950EF5F0E583950F4005F58385F082C3B6
:0D05D300E50F13F50FE50E13F50EDAE1222A
:200046007800E84400600A790175AF00E4F309D8FC7800E84400600C7900900001E4F0A3A9
:04006600D8FCD9FAEF
:2005E000C00D85810D1200E4D00D2285825C85835D85F05EE4F559F55AF55B850C5F900535
:20060000E00206DBC00D85810DE50D24FBFF8F5FE4F559F55AF55BE50D24FBF8865C0886EF
:0D0620005D08865E9005E01206DBD00D221D
:20062D00AF82C04FC050C05112063A8007C04DC04E8F82221581158115810557E4B5570215
:20064D00055822AF8274302FFF24C6500A74072FFF3000034307208F8202062DE582FFC411
:20066D00540FF582C007120650D007740F5FF58202065085820E85520F855310855411858A
:20068D005512AA56751320EA2AFAE512235401FF8A064EFAE50F250FF50FE51033F510E5AC
:2006AD001133F511E51233F512C3EA950E4008EAC3950EFA430F01E51314FF8F1370C88513
:2006CD000F528510538511548512558A562285824D85834E85594F855A50855B51E4F55785
:2006ED00F558AD5CAE5DAF5E8D828E838FF0120BFDFC74012DF55CE43EF55D8F5EECFF701B
:20070D0003020BDEBF25028003020BD6C201C202C203C204C205C206C207C2087560007514
:20072D0061007CFFAA5CAB5DAE5E8A828B838EF0120BFDFFA3AA82AB838A5C8B5D8E5EBF8F
:20074D0025078F8212062D80998F6374D025635026E56324C64020BCFF12E56175F00AA405
:20076D00FD2F24D0F56170C2D20280BEEC75F00AA42F24D0FC80B3BF2E07BCFFAD7C008009
:20078D00A98F05BD6100400CED248540075307DFD2008002C200BF2002806DBF2B028063DC
:2007AD00BF2D028059BF42028063BF43028068BF4403020980BF4603020996BF4803020746
:2007CD0037BF4903020980BF4A03020737BF4C028040BF4F03020987BF5003020915BF533F
:2007ED0002805CBF5403020737BF550302098CBF5803020991BF5A0302073702099AD20180
:20080D00020737D203020737D204020737D206020737D20702073730060CE55F14FE8E5FAA
:20082D008E0187078011E55F24FEFE8E5F8E018705098706198D078F8212062D0209A3E565
:20084D005F24FDFE8E5F8E01870309870509870619198B528D538E548B828D838EF0C004AC
:20086D00120BE5AD82AE83D004BCFF028D0420012AC3ED95615024E561C39DF561AE618EE9
:20088D00031EEB6014758220C006C005C00412062DD004D005D00680E68E618C0685528261
:2008AD008553838554F0120BFDFCFF602F8E041EC374808CF063F08095F050208F82C006E1
:2008CD00C00512062DD005D006AA52AB53AC540ABA00010B8A528B538C5480C1200103028B
:2008ED0009A3C3ED956140030209A3E561C39DF561AE618E041EEC70030209A1758220C00B
:20090D000612062DD00680EBE55F24FDFC8C5F8C01870209870309870419198A528B538C3D
:20092D0054AC54BC800040047F438014BC600040047F50800BBC400040047F4980027F5865
:20094D008F82C00712062D75823A12062D75823012062D75827812062DD007BF4902800B6B
:20096D00BF500280068553821206698552821206698023D20575600A801C75600880177540
:20098D00600A8012756010800DD20880098F8212062D80028E6130085CE55F24FCFE8E5FCF
:2009AD008E0187020987030987040987061919198A528B538C548E5575521475530D755414
:2009CD008085526485536585546674012564FAE43565FCAE668A528C538E5485648285655B
:2009ED00838566F0120BFDFEFF70030206EF8F8212062D80CCE56070030206EF756219309A
:200A0D00062DE55F14FC8C5F8C01E7FA3395E0FBFCFE8A528B538C548E55200566AA527BCD
:200A2D00007C007E008A528B538C548E558054300721E55F24FCFE8E5F8E0187020987030C
:200A4D000987040987061919198A528B538C548E558030E55F24FEFE8E5F8E0187040987EC
:200A6D000619EE3395E0FBFA8C528E538B548A55200510AA52AB537C007E008A528B538CD3
:200A8D00548E55300522E55530E71BC3E49552FAE49553FBE49554FCE49555FE8A528B53B1
:200AAD008C548E558002C205D209A9627E00755600856082C006C001120680D001D00620A1
:200ACD00090BE556C4FCE7FB4CF7198002A7560EB209E55245534554455570D289628E05B2
:200AED00E5617003756101200224200121ED04FEAC61C3EE9C5015758220C006C005C004BD
:200B0D0012062DD004D005D0061C80E68C6130050E75822DC00512062DD00515618023ED49
:200B2D00602030030E75822BC00512062DD0051561800F30040C758220C00512062DD005AB
:200B4D001561200122AE618E041EC3ED9C502B3002047C3080027C208C82C006C005120698
:200B6D002DD005D00680E0C3ED95615008E561C39DF561800775610080028E61A9628D06CA
:200B8D008E051EED6026B20920090A09E7C4540FFD8D5680078705740F5DF556855682C0E4
:200BAD0006C001120650D001D00680D42001030206EFAE618E051EED70030206EF758220B5
:180BCD00C00612062DD00680EB8F8212062D0206EF8557828558832297
:0B0D14003C4E4F20464C4F41543E0027
:180BE500AA82AB83120BFD6003A380F8C3E5829AF582E5839BF583222E
:0D001100758166120C4FE582600302000E3F
:1C0BFD0020F71430F6148883A88220F507E6A88375830022E280F7E49322E02207
:200C1900C2D5E58330E70DD2D5E4C39582F582E49583F583E50F30E70BE4C3950EF50EE401
:160C3900950FF50F12059330D50BE4C39582F582E49583F5832278
:040C4F007582002288
:00000001FF
