:0400000002001132B7
:03000B00020531BA
:1E006A00E4F524F525F526F527F528F529F52AF52DF52E752F01F543F548F549F54AF4
:0300920002000E5B
:03000E0002010CE0
:2000950075B1677E007F01EE24FFFCEF34FFFD8C068D07EC4D70F0E5B130E7FB75B288225C
:2000B500759850758920758DDCD28E438E10438780D29943A4012275FFDE75FFAD120095B8
:2000D5001200B543E10443E34022AF8210990280FB8F992210980280FB8599821200DF85B8
:2000F5009982222098057582FF800BC2988599821200DF859982221200CC1204D41204FDE8
:200115001205037582201200DF74D1C0E0740DC0E07480C0E012078215811581158112049B
:20013500EC1204F11206341200E9E582F5223395E0F52374EEC0E0740DC0E07480C0E01269
:2001550007821581158115817543007545007546007547001205527402C0E0740EC0E07441
:2001750080C0E012078215811581158174FD2545500302029EAE457F00C006C0077412C0D8
:20019500E0740EC0E07480C0E0120782E58124FBF58174FD25465003020296AE467F00C022
:2001B50006C007741DC0E0740EC0E07480C0E0120782E58124FBF581752800754400C3E5E2
:2001D5002864808544F063F08095F0405E208654742AC0E0740EC0E07480C0E012078215B1
:2001F5008115811581E5442430F9878212035D858247E5442430F987077E00C007C006747B
:2002150031C0E0740EC0E07480C0E0120782E58124FBF581E54760040543800B120355756A
:20023500280B80071202F1054480930528C3E5286480948350030201D0E5462448F9870752
:20025500E5432FF70546E5462448F987077E00AC437D00AA467B00C007C006C004C005C0A7
:2002750002C003743EC0E0740EC0E07480C0E0120782E58124F7F58175430012032C02010E
:20029500A77546000545020181AE4A7F00AC497D00AA487B00C006C007C004C005C002C02B
:2002B500037470C0E0740EC0E07480C0E0120782E58124F7F581120657C28C74AAC0E0746B
:2002D5000EC0E07480C0E01207821581158115813086FD20860302013380F82274CDC0E05D
:2002F500740EC0E07480C0E0120782158115811581C2A11204AE1204ECC2A31204AE12046E
:20031500EC74D6C0E0740EC0E07480C0E01207821581158115812274E3C0E0740EC0E07430
:2003350080C0E0120782158115811581C2B4C2B3C2B0C2B11204AED2B4D2B3D2B0D2B12265
:20035500C2A51204AED2A522AF82C00774EEC0E0740EC0E07480C0E0120782158115811538
:2003750081D0078F82C0071203F11204AED0078F8212038A22AF82C00774F5C0E0740EC082
:20039500E07480C0E0120782158115811581D007BF0002800FBF01028017BF0202801FBFD6
:2003B50003368027209005758201802F758200802A2092057582018022758200801D2094B2
:2003D50005758201801575820080102096057582018008758200800375820022AF82C00729
:2003F5007404C0E0740FC0E07480C0E0120782158115811581D007D2B4D2B3D2B0D2B1EFE6
:20041500FD3395E0FEC007C005C006740DC0E0740FC0E07480C0E0120782E58124FBF58164
:20043500D007BF0002800FBF01028023BF02028037BF0364804BC2B47428C0E0740FC0E0DB
:200455007480C0E01207821581158115818049C2B37432C0E0740FC0E07480C0E0120782C0
:200475001581158115818030C2B0743CC0E0740FC0E07480C0E0120782158115811581809F
:2004950017C2B17442C0E0740FC0E07480C0E0120782158115811581227448C0E0740FC092
:2004B500E07480C0E0120782158115811581E4F524F525C3E5249452E525940140F5224354
:2004D500A7F853A7FCAFB074034FF5B053A6FEAFA074014FF5A022D2A3D2A122C28CE4F5B6
:2004F5008AF58CF524F5252243A802D2AF22858E8E5389F0C28CE4F58AF58C2275D1037578
:20051500AA8043AB01228582ACAFAA74DF5FF5AA43AA10E5AA30E5FB859C8222C0E0C0D09D
:2005350074012524F524E43525F525D0D0D0E032120658750E04750F00120D9722750E031C
:20055500750F00852282852383120D97AE82AF838E2C753001753101753201753301753495
:2005750001753501753601753701753801753901752900E5292430F987077E00E529FC33C2
:2005950095E0FDC007C006C004C005744FC0E0740FC0E07480C0E0120782E58124F9F58110
:2005B5000529C3E5296480948A40C822752900752A00E52975F003A4243AFF252AF876008A
:2005D500052AC37482852AF063F08095F050E30529C374828529F063F08095F050D1752958
:2005F50000C374898529F063F08095F0400BE5292430F87600052980E8221205C112065815
:2006150090000022852426852527E524C39526FEE5259527FFC3EE9404EF940040EC22D23D
:200635008C22C28C308604D2A180F922D2A1C2A3052D12061922C2A1D2A3C2A5120619D242
:03065500A52222B9
:200DD1000D507265737320656E74657220746F2073746172742067616D650D0A000D204714
:200DF100616D65206E6F7720706C6179696E670A000D646F6E652072616E6467656E640AFD
:200E1100000D207475726E2025640A000D20706C617965722025640A000D202153530A00AD
:200E31000D636F72726563742025690A00706C617965722025642073636F72652074686913
:200E510073207475726E207761732025642C20746F74616C2073636F72652025640A000DA5
:200E7100506C6179657220312073636F72652025692C20506C6179657220322073636F72D7
:200E9100652025692C20506C6179657220332073636F72652025690A000D546F67676C65BF
:200EB10020736C69642073776974636820746F20706C617920616761696E0A000D207061A2
:200ED1007573650A000D20656E642070617573650A000D20656E645475726E0A000D207347
:200EF10065710A000D207075736820627574746F6E0A000D206C696768740A000D206C69FD
:200F110067687473206F66662C204C494748542049532025640A000D206361736520300A59
:200F3100000D206361736520310A000D2063320A000D2063330A000D776169740A000D52B8
:0E0F5100616E642025642069732025640A0007
:0A008800750801E4F509F50AF50B0F
:2006580085080E85090F850A10850B11904E6D75F0C674411206A3AC82AD83AEF0FF74397C
:200678002CF50874303DF509E43EF50AE43FF50BAC0AAD0B8C82747F5DF58322AE82AF834E
:0B0698008E088F09750A00750B002208
:06004000E478FFF6D8FD94
:20001E007900E94400601B7A00900F6A780175AF00E493F2A308B8000205AFD9F4DAF275F1
:02003E00AFFF12
:2006A300AAF0FBE582850EF0A4FCADF0E583850EF0A42DFDE435F0FEE582850FF0A42DFD02
:2006C300E5F03EFEE433FFEA850EF0A42EFEE5F03FFFE583850FF0A42EFEE5F03FFFE5826A
:2006E3008510F0A42EFEE5F03FFFEB850EF0A42FFFEA850FF0A42FFFE5838510F0A42FFF50
:0E070300E5828511F0A42F8EF08D838C82226A
:20071100E50E450F60467A01E50E25E0F50EE50F334012F50FE582950EE583950F40030A85
:2007310080E6C3E50F13F50FE50E13F50EC3E582950EF5F0E583950F4005F58385F082C336
:0D075100E50F13F50FE50E13F50EDAE122AA
:200046007800E84400600A790175AF00E4F309D8FC7800E84400600C7900900001E4F0A3A9
:04006600D8FCD9FAEF
:20075E00C00D85810D1200DFD00D2285825A85835B85F05CE4F557F558F559850C5D9007C6
:20077E005E020859C00D85810DE50D24FBFF8F5DE4F557F558F559E50D24FBF8865A08867C
:0D079E005B08865C90075E120859D00D22A2
:2007AB00AF82C04DC04EC04F1207B88007C04BC04C8F82221581158115810555E4B5550225
:2007CB00055622AF8274302FFF24C6500A74072FFF3000034307208F820207ABE582FFC415
:2007EB00540FF582C0071207CED007740F5FF5820207CE85820E85500F8551108552118513
:20080B005312AA54751320EA2AFAE512235401FF8A064EFAE50F250FF50FE51033F510E530
:20082B001133F511E51233F512C3EA950E4008EAC3950EFA430F01E51314FF8F1370C88593
:20084B000F508510518511528512538A542285824B85834C85574D85584E85594FE4F55521
:20086B00F556AD5AAE5BAF5C8D828E838FF0120D7BFC74012DF55AE43EF55B8F5CECFF7029
:20088B0003020D5CBF25028003020D54C201C202C203C204C205C206C207C208755E007597
:2008AB005F007CFFAA5AAB5BAE5C8A828B838EF0120D7BFFA3AA82AB838A5A8B5B8E5CBF9E
:2008CB0025078F821207AB80998F6174D025615026E56124C64020BCFF12E55F75F00AA40F
:2008EB00FD2F24D0F55F70C2D20280BEEC75F00AA42F24D0FC80B3BF2E07BCFFAD7C00808C
:20090B00A98F05BD6100400CED248540075307DFD2008002C200BF2002806DBF2B0280635C
:20092B00BF2D028059BF42028063BF43028068BF4403020AFEBF4603020B14BF48030208C6
:20094B00B5BF4903020AFEBF4A030208B5BF4C028040BF4F03020B05BF5003020A93BF5344
:20096B0002805CBF54030208B5BF5503020B0ABF5803020B0FBF5A030208B5020B18D20182
:20098B000208B5D2030208B5D2040208B5D2060208B5D2070208B530060CE55D14FE8E5DB4
:2009AB008E0187078011E55D24FEFE8E5D8E018705098706198D078F821207AB020B21E5EB
:2009CB005D24FDFE8E5D8E01870309870509870619198B508D518E528B828D838EF0C00437
:2009EB00120D63AD82AE83D004BCFF028D0420012AC3ED955F5024E55FC39DF55FAE5F8EF2
:200A0B00031EEB6014758220C006C005C0041207ABD004D005D00680E68E5F8C0685508266
:200A2B008551838552F0120D7BFCFF602F8E041EC374808CF063F08095F050208F82C006E5
:200A4B00C0051207ABD005D006AA50AB51AC520ABA00010B8A508B518C5280C12001030298
:200A6B000B21C3ED955F4003020B21E55FC39DF55FAE5F8E041EEC7003020B1F758220C013
:200A8B00061207ABD00680EBE55D24FDFC8C5D8C01870209870309870419198A508B518C47
:200AAB0052AC52BC800040047F438014BC600040047F50800BBC400040047F4980027F58EA
:200ACB008F82C0071207AB75823A1207AB7582301207AB7582781207ABD007BF4902800BF0
:200AEB00BF500280068551821207E78550821207E78023D205755E0A801C755E08801775CB
:200B0B005E0A8012755E10800DD20880098F821207AB80028E5F30085CE55D24FCFE8E5DDA
:200B2B008E0187020987030987040987061919198A508B518C528E5375505F75510F755255
:200B4B008085506285516385526474012562FAE43563FCAE648A508C518E528562828563F7
:200B6B00838564F0120D7BFEFF700302086D8F821207AB80CCE55E700302086D7560193021
:200B8B00062DE55D14FC8C5D8C01E7FA3395E0FBFCFE8A508B518C528E53200566AA507B5C
:200BAB00007C007E008A508B518C528E538054300721E55D24FCFE8E5D8E01870209870399
:200BCB000987040987061919198A508B518C528E538030E55D24FEFE8E5D8E018704098779
:200BEB000619EE3395E0FBFA8C508E518B528A53200510AA50AB517C007E008A508B518C64
:200C0B00528E53300522E55330E71BC3E49550FAE49551FBE49552FCE49553FE8A508B5143
:200C2B008C528E538002C205D209A9607E00755400855E82C006C0011207FED001D00620AC
:200C4B00090BE554C4FCE7FB4CF7198002A7540EB209E55045514552455370D289608E0540
:200C6B00E55F7003755F01200224200121ED04FEAC5FC3EE9C5015758220C006C005C00443
:200C8B001207ABD004D005D0061C80E68C5F30050E75822DC0051207ABD005155F8023EDD0
:200CAB00602030030E75822BC0051207ABD005155F800F30040C758220C0051207ABD00530
:200CCB00155F200122AE5F8E041EC3ED9C502B3002047C3080027C208C82C006C00512071C
:200CEB00ABD005D00680E0C3ED955F5008E55FC39DF55F8007755F0080028E5FA9608D06D9
:200D0B008E051EED6026B20920090A09E7C4540FFD8D5480078705740F5DF554855482C06A
:200D2B0006C0011207CED001D00680D420010302086DAE5F8E051EED700302086D758220B8
:180D4B00C0061207ABD00680EB8F821207AB02086D855582855683229D
:0B0F5F003C4E4F20464C4F41543E00DA
:180D6300AA82AB83120D7B6003A380F8C3E5829AF582E5839BF583222E
:0D001100758164120DCDE582600302000EC2
:1C0D7B0020F71430F6148883A88220F507E6A88375830022E280F7E49322E02287
:200D9700C2D5E58330E70DD2D5E4C39582F582E49583F583E50F30E70BE4C3950EF50EE482
:160DB700950FF50F12071130D50BE4C39582F582E49583F5832279
:040DCD007582002209
:00000001FF
