:0400000002001132B7
:03000B0002056D7E
:20006A00E4F524F525F526F527F528F529F52AF52DF52E752F01F543F545F546F548F549BC
:02008A00F54A35
:0300960002000E57
:03000E00020110DC
:2000990075B1677E007F01EE24FFFCEF34FFFD8C068D07EC4D70F0E5B130E7FB75B2882258
:2000B900759850758920758DDCD28E438E10438780D29943A4012275FFDE75FFAD120099B0
:2000D9001200B943E10443E34022AF8210990280FB8F992210980280FB8599821200E385AC
:2000F9009982222098057582FF800BC2988599821200E3859982221200D012051012053962
:2001190012053F7582201200E3740DC0E0740EC0E07480C0E01207BE1581158115811205DD
:200139002812052D1206701200EDE582F5223395E0F523742AC0E0740EC0E07480C0E0126F
:2001590007BE15811581158175430075450075460075470012058E743EC0E0740EC0E07489
:2001790080C0E01207BE15811581158174FF254550030202A2AE457F00C006C007744EC056
:20019900E0740EC0E07480C0E01207BEE58124FBF58175460074FD2546500302029DAE465F
:2001B9007F00C006C0077459C0E0740EC0E07480C0E01207BEE58124FBF5817528007544CF
:2001D90000C3E52864808544F063F08095F0405E2086547466C0E0740EC0E07480C0E01267
:2001F90007BE158115811581E5442430F98782120399858247E5442430F987077E00C0079B
:20021900C006746DC0E0740EC0E07480C0E01207BEE58124FBF581E54760040543800B1281
:20023900039175280B800712032D054480930528C3E5286480948350030201D7E546244888
:20025900F98707E5432FF70546E5462448F987077E00AC437D00AA467B00C007C006C004A1
:20027900C005C002C003747AC0E0740EC0E07480C0E01207BEE58124F7F58175430012033C
:20029900680201AE0545020185AE4A7F00AC497D00AA487B00C006C007C004C005C002C06C
:2002B9000374ACC0E0740EC0E07480C0E01207BEE58124F7F581120693C28C74E6C0E07477
:2002D9000EC0E07480C0E01207BE1581158115813086FD7409C0E0740FC0E07480C0E01291
:2002F90007BE158115811581C2A3D2A12086FD7417C0E0740FC0E07480C0E01207BE158194
:2003190015811581C2A1D2A3C2B4C2B3C2B0C2B1020137227428C0E0740FC0E07480C0E0A1
:200339001207BE158115811581C2A11204EA120528C2A31204EA1205287431C0E0740FC03D
:20035900E07480C0E01207BE15811581158122743EC0E0740FC0E07480C0E01207BE1581DF
:2003790015811581C2B4C2B3C2B0C2B11204EAD2B4D2B3D2B0D2B122C2A51204EAD2A52236
:20039900AF82C0077449C0E0740FC0E07480C0E01207BE158115811581D0078F82C00712DE
:2003B900042D1204EAD0078F821203C622AF82C0077450C0E0740FC0E07480C0E01207BE24
:2003D900158115811581D007BF0002800FBF01028017BF0202801FBF033680272090057597
:2003F9008201802F758200802A2092057582018022758200801D20940575820180157582EF
:200419000080102096057582018008758200800375820022AF82C007745FC0E0740FC0E0D7
:200439007480C0E01207BE158115811581D007D2B4D2B3D2B0D2B1EFFD3395E0FEC007C076
:2004590005C0067468C0E0740FC0E07480C0E01207BEE58124FBF581D007BF0002800FBFCD
:2004790001028023BF02028037BF0364804BC2B47483C0E0740FC0E07480C0E01207BE15A2
:2004990081158115818049C2B3748DC0E0740FC0E07480C0E01207BE1581158115818030B7
:2004B900C2B07497C0E0740FC0E07480C0E01207BE1581158115818017C2B1749DC0E07487
:2004D9000FC0E07480C0E01207BE1581158115812274A3C0E0740FC0E07480C0E01207BEC0
:2004F900158115811581E4F524F525C3E5249452E525940140F52243A7F853A7FCAFB074B7
:20051900034FF5B053A6FEAFA074014FF5A022D2A3D2A122C28CE4F58AF58CF524F5252279
:2005390043A802D2AF22858E8E5389F0C28CE4F58AF58C2275D10375AA8043AB0122858251
:20055900ACAFAA74DF5FF5AA43AA10E5AA30E5FB859C8222C0E0C0D074012524F524E435AB
:2005790025F525D0D0D0E032120694750E04750F00120DD322750E03750F008522828523FB
:2005990083120DD3AE82AF838E2C753001753101753201753301753401753501753601759D
:2005B9003701753801753901752900E5292430F987077E00E529FC3395E0FDC007C006C08C
:2005D90004C00574AAC0E0740FC0E07480C0E01207BEE58124F9F5810529C3E5296480947D
:2005F9008A40C822752900752A00E52975F003A4243AFF252AF87600052AC37482852AF036
:2006190063F08095F050E30529C374828529F063F08095F050D1752900C374898529F063D9
:20063900F08095F0400BE5292430F87600052980E8221205FD120694900000228524268513
:200659002527E524C39526FEE5259527FFC3EE9404EF940040EC22D28C22C28C308604D277
:1B067900A180F922D2A1C2A3052D12065522C2A1D2A3C2A5120655D2A522222A
:200E0D000D507265737320656E74657220746F2073746172742067616D650D0A000D2047D7
:200E2D00616D65206E6F7720706C6179696E670A000D646F6E652072616E6467656E640AC0
:200E4D00000D207475726E2025640A000D20706C617965722025640A000D202153530A0071
:200E6D000D636F72726563742025690A00706C617965722025642073636F726520746869D7
:200E8D0073207475726E207761732025642C20746F74616C2073636F72652025640A000D69
:200EAD00506C6179657220312073636F72652025692C20506C6179657220322073636F729B
:200ECD00652025692C20506C6179657220332073636F72652025690A000D546F67676C6583
:200EED0020736C69642073776974636820746F20706C617920616761696E0A000D746F670D
:200F0D00676C65206F6E63650A000D746F67676C6520747769636521210A000D2070617533
:200F2D0073650A000D20656E642070617573650A000D20656E645475726E0A000D207365FA
:200F4D00710A000D207075736820627574746F6E0A000D206C696768740A000D206C69679E
:200F6D00687473206F66662C204C494748542049532025640A000D206361736520300A0064
:200F8D000D206361736520310A000D2063320A000D2063330A000D776169740A000D5261FB
:0D0FAD006E642025642069732025640A000D
:0A008C00750801E4F509F50AF50B0B
:2006940085080E85090F850A10850B11904E6D75F0C674411206DFAC82AD83AEF0FF743904
:2006B4002CF50874303DF509E43EF50AE43FF50BAC0AAD0B8C82747F5DF58322AE82AF8312
:0B06D4008E088F09750A00750B0022CC
:06004000E478FFF6D8FD94
:20001E007900E94400601B7A00900FC5780175AF00E493F2A308B8000205AFD9F4DAF27596
:02003E00AFFF12
:2006DF00AAF0FBE582850EF0A4FCADF0E583850EF0A42DFDE435F0FEE582850FF0A42DFDC6
:2006FF00E5F03EFEE433FFEA850EF0A42EFEE5F03FFFE583850FF0A42EFEE5F03FFFE5822E
:20071F008510F0A42EFEE5F03FFFEB850EF0A42FFFEA850FF0A42FFFE5838510F0A42FFF13
:0E073F00E5828511F0A42F8EF08D838C82222E
:20074D00E50E450F60467A01E50E25E0F50EE50F334012F50FE582950EE583950F40030A49
:20076D0080E6C3E50F13F50FE50E13F50EC3E582950EF5F0E583950F4005F58385F082C3FA
:0D078D00E50F13F50FE50E13F50EDAE1226E
:200046007800E84400600A790175AF00E4F309D8FC7800E84400600C7900900001E4F0A3A9
:04006600D8FCD9FAEF
:20079A00C00D85810D1200E3D00D2285825A85835B85F05CE4F557F558F559850C5D900786
:2007BA009A020895C00D85810DE50D24FBFF8F5DE4F557F558F559E50D24FBF8865A0886C8
:0D07DA005B08865C90079A120895D00D22EE
:2007E700AF82C04DC04EC04F1207F48007C04BC04C8F82221581158115810555E4B55502AD
:20080700055622AF8274302FFF24C6500A74072FFF3000034307208F820207E7E582FFC49C
:20082700540FF582C00712080AD007740F5FF58202080A85820E85500F855110855211855C
:200847005312AA54751320EA2AFAE512235401FF8A064EFAE50F250FF50FE51033F510E5F4
:200867001133F511E51233F512C3EA950E4008EAC3950EFA430F01E51314FF8F1370C88557
:200887000F508510518511528512538A542285824B85834C85574D85584E85594FE4F555E5
:2008A700F556AD5AAE5BAF5C8D828E838FF0120DB7FC74012DF55AE43EF55B8F5CECFF70B1
:2008C70003020D98BF25028003020D90C201C202C203C204C205C206C207C208755E0075E3
:2008E7005F007CFFAA5AAB5BAE5C8A828B838EF0120DB7FFA3AA82AB838A5A8B5B8E5CBF26
:2009070025078F821207E780998F6174D025615026E56124C64020BCFF12E55F75F00AA496
:20092700FD2F24D0F55F70C2D20280BEEC75F00AA42F24D0FC80B3BF2E07BCFFAD7C00804F
:20094700A98F05BD6100400CED248540075307DFD2008002C200BF2002806DBF2B02806320
:20096700BF2D028059BF42028063BF43028068BF4403020B3ABF4603020B50BF4803020811
:20098700F1BF4903020B3ABF4A030208F1BF4C028040BF4F03020B41BF5003020ACFBF53DB
:2009A70002805CBF54030208F1BF5503020B46BF5803020B4BBF5A030208F1020B54D2011A
:2009C7000208F1D2030208F1D2040208F1D2060208F1D2070208F130060CE55D14FE8E5D4C
:2009E7008E0187078011E55D24FEFE8E5D8E018705098706198D078F821207E7020B5DE537
:200A07005D24FDFE8E5D8E01870309870509870619198B508D518E528B828D838EF0C004FA
:200A2700120D9FAD82AE83D004BCFF028D0420012AC3ED955F5024E55FC39DF55FAE5F8E79
:200A4700031EEB6014758220C006C005C0041207E7D004D005D00680E68E5F8C06855082EE
:200A67008551838552F0120DB7FCFF602F8E041EC374808CF063F08095F050208F82C0066D
:200A8700C0051207E7D005D006AA50AB51AC520ABA00010B8A508B518C5280C12001030220
:200AA7000B5DC3ED955F4003020B5DE55FC39DF55FAE5F8E041EEC7003020B5B758220C023
:200AC700061207E7D00680EBE55D24FDFC8C5D8C01870209870309870419198A508B518CCF
:200AE70052AC52BC800040047F438014BC600040047F50800BBC400040047F4980027F58AE
:200B07008F82C0071207E775823A1207E77582301207E77582781207E7D007BF4902800BC3
:200B2700BF500280068551821208238550821208238023D205755E0A801C755E0880177514
:200B47005E0A8012755E10800DD20880098F821207E780028E5F30085CE55D24FCFE8E5D62
:200B67008E0187020987030987040987061919198A508B518C528E537550BA75510F7552BE
:200B87008085506285516385526474012562FAE43563FCAE648A508C518E528562828563BB
:200BA700838564F0120DB7FEFF70030208A98F821207E780CCE55E70030208A975601930F5
:200BC700062DE55D14FC8C5D8C01E7FA3395E0FBFCFE8A508B518C528E53200566AA507B20
:200BE700007C007E008A508B518C528E538054300721E55D24FCFE8E5D8E0187020987035D
:200C07000987040987061919198A508B518C528E538030E55D24FEFE8E5D8E01870409873C
:200C27000619EE3395E0FBFA8C508E518B528A53200510AA50AB517C007E008A508B518C27
:200C4700528E53300522E55330E71BC3E49550FAE49551FBE49552FCE49553FE8A508B5107
:200C67008C528E538002C205D209A9607E00755400855E82C006C00112083AD001D0062033
:200C8700090BE554C4FCE7FB4CF7198002A7540EB209E55045514552455370D289608E0504
:200CA700E55F7003755F01200224200121ED04FEAC5FC3EE9C5015758220C006C005C00407
:200CC7001207E7D004D005D0061C80E68C5F30050E75822DC0051207E7D005155F8023ED1C
:200CE700602030030E75822BC0051207E7D005155F800F30040C758220C0051207E7D0057C
:200D0700155F200122AE5F8E041EC3ED9C502B3002047C3080027C208C82C006C0051207DF
:200D2700E7D005D00680E0C3ED955F5008E55FC39DF55F8007755F0080028E5FA9608D0660
:200D47008E051EED6026B20920090A09E7C4540FFD8D5480078705740F5DF554855482C02E
:200D670006C00112080AD001D00680D42001030208A9AE5F8E051EED70030208A9758220C7
:180D8700C0061207E7D00680EB8F821207E70208A985558285568322AD
:0B0FBA003C4E4F20464C4F41543E007F
:180D9F00AA82AB83120DB76003A380F8C3E5829AF582E5839BF58322B6
:0D001100758164120E09E582600302000E85
:1C0DB70020F71430F6148883A88220F507E6A88375830022E280F7E49322E0224B
:200DD300C2D5E58330E70DD2D5E4C39582F582E49583F583E50F30E70BE4C3950EF50EE446
:160DF300950FF50F12074D30D50BE4C39582F582E49583F5832201
:040E090075820022CC
:00000001FF
