:0400000002001132B7
:03000B0002053FAC
:1E006A00E4F524F525F526F527F528F529F52AF52DF52E752F01F543F548F549F54AF4
:0300920002000E5B
:03000E0002010CE0
:2000950075B1677E007F01EE24FFFCEF34FFFD8C068D07EC4D70F0E5B130E7FB75B288225C
:2000B500759850758920758DDCD28E438E10438780D29943A4012275FFDE75FFAD120095B8
:2000D5001200B543E10443E34022AF8210990280FB8F992210980280FB8599821200DF85B8
:2000F5009982222098057582FF800BC2988599821200DF859982221200CC1204E212050BCB
:200115001205117582201200DF7420C0E0740EC0E07480C0E01207D11581158115811204EE
:20013500FA1204FF1206831200E9E582F5223395E0F523743DC0E0740EC0E07480C0E012AE
:2001550007D11581158115817543007545007546007547001205607451C0E0740EC0E07495
:2001750080C0E01207D115811581158174FD254550030202AC7461C0E0740EC0E07480C075
:20019500E01207D115811581158174FD254640DC746FC0E0740EC0E07480C0E01207D1158E
:2001B5008115811581752800747FC0E0740EC0E07480C0E01207D115811581158175440032
:2001D500C3E52864808544F063F08095F040747488C0E0740EC0E07480C0E01207D11581BF
:2001F500158115812086547491C0E0740EC0E07480C0E01207D1158115811581E544243040
:20021500F9878212036B858247E5442430F987077E00C007C0067498C0E0740EC0E0748028
:20023500C0E01207D1E58124FBF581E54760040543800B12036375280B80081202FF0544BD
:200255000201D50528C3E5286480948A50030201BDE5462448F98707E5432FF7E54624489C
:20027500F987077E00AC437D00AA467B00C007C006C004C005C002C00374A5C0E0740EC0F7
:20029500E07480C0E01207D1E58124F7F58175430012033A02019FAE4A7F00AC497D00AAB8
:2002B500487B00C006C007C004C005C002C00374D6C0E0740EC0E07480C0E01207D1E581DB
:2002D50024F7F5811206A6C28C7410C0E0740FC0E07480C0E01207D115811581158130862F
:2002F500FD20860302013380F8227433C0E0740FC0E07480C0E01207D1158115811581C207
:20031500A11204BC1204FAC2A31204BC1204FA743CC0E0740FC0E07480C0E01207D1158177
:2003350015811581227449C0E0740FC0E07480C0E01207D1158115811581C2B4C2B3C2B03D
:20035500C2B11204BCD2B4D2B3D2B0D2B122C2A51204BCD2A522AF82C0077454C0E0740F5C
:20037500C0E07480C0E01207D1158115811581D0078F82C0071203FF1204BCD0078F8212F9
:20039500039822AF82C007745BC0E0740FC0E07480C0E01207D1158115811581D007BF002B
:2003B50002800FBF01028017BF0202801FBF03368027209005758201802F758200802A2020
:2003D50092057582018022758200801D209405758201801575820080102096057582018043
:2003F50008758200800375820022AF82C007746AC0E0740FC0E07480C0E01207D11581158B
:20041500811581D007D2B4D2B3D2B0D2B1EFFD3395E0FEC007C005C0067473C0E0740FC01B
:20043500E07480C0E01207D1E58124FBF581D007BF0002800FBF01028023BF02028037BF89
:200455000364804BC2B4748EC0E0740FC0E07480C0E01207D11581158115818049C2B37428
:2004750098C0E0740FC0E07480C0E01207D11581158115818030C2B074A2C0E0740FC0E0D1
:200495007480C0E01207D11581158115818017C2B174A8C0E0740FC0E07480C0E01207D1A0
:2004B5001581158115812274AEC0E0740FC0E07480C0E01207D1158115811581E4F524F52C
:2004D50025C3E5249452E525940140F52243A7F853A7FCAFB074034FF5B053A6FEAFA074DE
:2004F500014FF5A022D2A3D2A122C28CE4F58AF58CF524F5252243A802D2AF22858E8E53CB
:2005150089F0C28CE4F58AF58C2275D10375AA8043AB01228582ACAFAA74DF5FF5AA43AAB6
:2005350010E5AA30E5FB859C8222C0E0C0D074012524F524E43525F525D0D0D0E032120639
:20055500A7750E04750F00120DE622750E03750F00852282852383120DE6AE82AF838E2C2E
:20057500752900C374898529F063F08095F0404F12055385822BE4F524F525E52CB52B34AB
:20059500AE2B7F00C006C00774B5C0E0740FC0E07480C0E01207D1E58124FBF581E4F524FF
:2005B500F525C374219524E4952550F612055385822B80C7E5292430F8A62B052980A47542
:2005D5002900E5292430F987077E00E529FC3395E0FDC007C006C004C00574C6C0E0740F54
:2005F500C0E07480C0E01207D1E58124F9F5810529C3E5296480948A40C822752900752A67
:2006150000E52975F003A4243AFF252AF87600052AC37482852AF063F08095F050E3052951
:20063500C374828529F063F08095F050D1752900C374898529F063F08095F0400BE5292404
:2006550030F87600052980E8221206101206A790000022852426852527E524C39526FEE58C
:20067500259527FFC3EE9404EF940040EC22D28C22C28C308604D2A180F922D2A1C2A305F8
:120695002D12066822C2A1D2A3C2A5120668D2A522220A
:200E20000D507265737320656E74657220746F2073746172742067616D650D0A000D2047C4
:200E4000616D65206E6F7720706C6179696E670A000D646F6E652072616E6467656E640AAD
:200E6000000D207768696C65207475726E0A000D207768696C6520706C617965720A000D2F
:200E800020666F7220690A000D20666F72206B0A000D202153530A000D636F727265637452
:200EA0002025690A00706C6179657220256920736F72652074686973207475726E207761AD
:200EC000732025692C20746F74616C2073636F72652025690A000D506C61796572203120A2
:200EE00073636F72652025692C20506C6179657220322073636F72652025692C20506C61CA
:200F000079657220332073636F72652025690A000D546F67676C6520736C6964207377698C
:200F200074636820746F20706C617920616761696E0A000D2070617573650A000D20656E1A
:200F4000642070617573650A000D20656E645475726E0A000D207365710A000D20707573C9
:200F60006820627574746F6E0A000D206C696768740A000D206C6967687473206F66662CB5
:200F8000206C696768742069732025630A000D206361736520300A000D206361736520312E
:200FA0000A000D2063320A000D2063330A000D776169740A000D72616E646F6D6E756D20C4
:160FC0003D2025640A000D52616E642025642069732025640A0041
:0A008800750801E4F509F50AF50B0F
:2006A70085080E85090F850A10850B11904E6D75F0C674411206F2AC82AD83AEF0FF7439DE
:2006C7002CF50874303DF509E43EF50AE43FF50BAC0AAD0B8C82747F5DF58322AE82AF83FF
:0B06E7008E088F09750A00750B0022B9
:06004000E478FFF6D8FD94
:20001E007900E94400601B7A00900FE1780175AF00E493F2A308B8000205AFD9F4DAF2757A
:02003E00AFFF12
:2006F200AAF0FBE582850EF0A4FCADF0E583850EF0A42DFDE435F0FEE582850FF0A42DFDB3
:20071200E5F03EFEE433FFEA850EF0A42EFEE5F03FFFE583850FF0A42EFEE5F03FFFE5821A
:200732008510F0A42EFEE5F03FFFEB850EF0A42FFFEA850FF0A42FFFE5838510F0A42FFF00
:0E075200E5828511F0A42F8EF08D838C82221B
:20076000E50E450F60467A01E50E25E0F50EE50F334012F50FE582950EE583950F40030A36
:2007800080E6C3E50F13F50FE50E13F50EC3E582950EF5F0E583950F4005F58385F082C3E7
:0D07A000E50F13F50FE50E13F50EDAE1225B
:200046007800E84400600A790175AF00E4F309D8FC7800E84400600C7900900001E4F0A3A9
:04006600D8FCD9FAEF
:2007AD00C00D85810D1200DFD00D2285825A85835B85F05CE4F557F558F559850C5D900777
:2007CD00AD0208A8C00D85810DE50D24FBFF8F5DE4F557F558F559E50D24FBF8865A08868F
:0D07ED005B08865C9007AD1208A8D00D22B5
:2007FA00AF82C04DC04EC04F1208078007C04BC04C8F82221581158115810555E4B5550286
:20081A00055622AF8274302FFF24C6500A74072FFF3000034307208F820207FAE582FFC476
:20083A00540FF582C00712081DD007740F5FF58202081D85820E85500F8551108552118523
:20085A005312AA54751320EA2AFAE512235401FF8A064EFAE50F250FF50FE51033F510E5E1
:20087A001133F511E51233F512C3EA950E4008EAC3950EFA430F01E51314FF8F1370C88544
:20089A000F508510518511528512538A542285824B85834C85574D85584E85594FE4F555D2
:2008BA00F556AD5AAE5BAF5C8D828E838FF0120DCAFC74012DF55AE43EF55B8F5CECFF708B
:2008DA0003020DABBF25028003020DA3C201C202C203C204C205C206C207C208755E0075AA
:2008FA005F007CFFAA5AAB5BAE5C8A828B838EF0120DCAFFA3AA82AB838A5A8B5B8E5CBF00
:20091A0025078F821207FA80998F6174D025615026E56124C64020BCFF12E55F75F00AA470
:20093A00FD2F24D0F55F70C2D20280BEEC75F00AA42F24D0FC80B3BF2E07BCFFAD7C00803C
:20095A00A98F05BD6100400CED248540075307DFD2008002C200BF2002806DBF2B0280630D
:20097A00BF2D028059BF42028063BF43028068BF4403020B4DBF4603020B63BF48030209D7
:20099A0004BF4903020B4DBF4A03020904BF4C028040BF4F03020B54BF5003020AE2BF5368
:2009BA0002805CBF5403020904BF5503020B59BF5803020B5EBF5A03020904020B67D201A6
:2009DA00020904D203020904D204020904D206020904D20702090430060CE55D14FE8E5DD5
:2009FA008E0187078011E55D24FEFE8E5D8E018705098706198D078F821207FA020B70E5FE
:200A1A005D24FDFE8E5D8E01870309870509870619198B508D518E528B828D838EF0C004E7
:200A3A00120DB2AD82AE83D004BCFF028D0420012AC3ED955F5024E55FC39DF55FAE5F8E53
:200A5A00031EEB6014758220C006C005C0041207FAD004D005D00680E68E5F8C06855082C8
:200A7A008551838552F0120DCAFCFF602F8E041EC374808CF063F08095F050208F82C00647
:200A9A00C0051207FAD005D006AA50AB51AC520ABA00010B8A508B518C5280C120010302FA
:200ABA000B70C3ED955F4003020B70E55FC39DF55FAE5F8E041EEC7003020B6E758220C0D7
:200ADA00061207FAD00680EBE55D24FDFC8C5D8C01870209870309870419198A508B518CA9
:200AFA0052AC52BC800040047F438014BC600040047F50800BBC400040047F4980027F589B
:200B1A008F82C0071207FA75823A1207FA7582301207FA7582781207FAD007BF4902800B64
:200B3A00BF500280068551821208368550821208368023D205755E0A801C755E08801775DB
:200B5A005E0A8012755E10800DD20880098F821207FA80028E5F30085CE55D24FCFE8E5D3C
:200B7A008E0187020987030987040987061919198A508B518C528E537550D675510F75528F
:200B9A008085506285516385526474012562FAE43563FCAE648A508C518E528562828563A8
:200BBA00838564F0120DCAFEFF70030208BC8F821207FA80CCE55E70030208BC7560193096
:200BDA00062DE55D14FC8C5D8C01E7FA3395E0FBFCFE8A508B518C528E53200566AA507B0D
:200BFA00007C007E008A508B518C528E538054300721E55D24FCFE8E5D8E0187020987034A
:200C1A000987040987061919198A508B518C528E538030E55D24FEFE8E5D8E018704098729
:200C3A000619EE3395E0FBFA8C508E518B528A53200510AA50AB517C007E008A508B518C14
:200C5A00528E53300522E55330E71BC3E49550FAE49551FBE49552FCE49553FE8A508B51F4
:200C7A008C528E538002C205D209A9607E00755400855E82C006C00112084DD001D006200D
:200C9A00090BE554C4FCE7FB4CF7198002A7540EB209E55045514552455370D289608E05F1
:200CBA00E55F7003755F01200224200121ED04FEAC5FC3EE9C5015758220C006C005C004F4
:200CDA001207FAD004D005D0061C80E68C5F30050E75822DC0051207FAD005155F8023EDE3
:200CFA00602030030E75822BC0051207FAD005155F800F30040C758220C0051207FAD00543
:200D1A00155F200122AE5F8E041EC3ED9C502B3002047C3080027C208C82C006C0051207CC
:200D3A00FAD005D00680E0C3ED955F5008E55FC39DF55F8007755F0080028E5FA9608D063A
:200D5A008E051EED6026B20920090A09E7C4540FFD8D5480078705740F5DF554855482C01B
:200D7A0006C00112081DD001D00680D42001030208BCAE5F8E051EED70030208BC7582207B
:180D9A00C0061207FAD00680EB8F821207FA0208BC8555828556832261
:0B0FD6003C4E4F20464C4F41543E0063
:180DB200AA82AB83120DCA6003A380F8C3E5829AF582E5839BF5832290
:0D001100758164120E1CE582600302000E72
:1C0DCA0020F71430F6148883A88220F507E6A88375830022E280F7E49322E02238
:200DE600C2D5E58330E70DD2D5E4C39582F582E49583F583E50F30E70BE4C3950EF50EE433
:160E0600950FF50F12076030D50BE4C39582F582E49583F58322DA
:040E1C0075820022B9
:00000001FF
