:040000000200513277
:01000B0032C2
:0100130032BA
:01001B0032B2
:0100230032AA
:01002B0032A2
:01003300329A
:01003B003292
:01004300328A
:03004B000207F5B4
:2000AA00753300753400E4F535F536F537F538F539F53A754101754201F543F5447545C09C
:0900CA007549E0754CE002004E9E
:03004E000205BFE9
:2000D30075B1677E007F01EE24FFFCEF34FFFD8C068D07EC4D70F0E5B130E7FB75B288221E
:2000F300759850758920758DDCD28E438E10438780D29943A4012275FFDE75FFAD1200D33C
:200113001200F343E10443E34022AF8210990280FB8F992210980280FB85998212011D85FC
:200133009982222098057582FF800BC29885998212011D85998222C00F85810FE50F24FB4E
:20015300F886820886830886F0120F8CE5828583F045F07002805EE50F24FBFF8F0BE50FCC
:2001730024FBF8860808860908860A90000175F0001208FC90000175F000120F8CAE827F3A
:2001930000C3EF9E501BEF2401FCE43400FD8C828D83E0FBBB0A078C828D83740DF00F8089
:2001B300E0752901752A00752B007528008E2C7582C612045DD00F2275220074C025224094
:2001D30017752E22752F00753040752D007531017582C61204D280E375230C752923752A52
:2001F30000752B40752800752C017582C612045D22752E26752F00753040752D01753102DE
:200213007582C61204D2AF26BFFF0575820080607E008E258525F005F07B017C008006EB8E
:200233002BFBEC33FCD5F0F78F027D00EA5203ED5204EB4C600774312EF58280330525AEAB
:200253002574F8252550CDE527FF30E005758239801EEF30E10575822A8015EF30E205756F
:200273008230800CEF30E30575822380037582FF22AF82E4FDFEEF701DC006C00574C4C062
:20029300E0740FC0E07480C0E012014A158115811581D005D006C006C0057408C0E0E4C09F
:2002B300E07408C0E0E4C0E07408C0E0E4C0E07408C0E0E4C0E07408C0E0E4C0E074DAC0BD
:2002D300E0740FC0E07480C0E012014AE58124F3F58190A12075F007E41203F8D005D006CB
:2002F3007F00C007C006C005120204AC82D005D006D0078C03BCFF028003BB2A17902710C0
:20031300E4F5F0C007C006C0051203F8D005D006D00780CEBB232AC006C005120204AC82F9
:20033300D005D006BC2313902710E4F5F0C006C0051203F8D005D00680DD8D828E830203B8
:20035300F7EBFA3395E0FCC007C006C005C004C003C002C002C00474EAC0E0740FC0E07454
:2003730080C0E012014AE58124FBF581D002D003D004D005D0068D118E1290000AC004C072
:2003930003C00212086FA882A983D002D003D004D007EA28F8EC39F9E824D0FDE934FFFE3B
:2003B300C007C006C005C003120204AC82D003D005D006D007ECB5031B902710E4F5F0C06B
:2003D30007C006C005C0031203F8D003D005D006D00780CC0FC3EF6480948550030202F5FD
:2003F3008D828E8322AC82AD83AEF0FF780079007A007B00C3E89CE99DEA9EEB9F500F0881
:20041300B8000909B900050ABA00E90B80E62220C7FDD2C530C3FDC2C5C2C3228582C2108F
:20043300C30280FB228582C2D2C410C30280FB2230C3FD85C282C2C32230C3FDAFC2C2C330
:20045300D2C410C30280FB8F8222AF82C007120422D00774FE5FF58212042F852882120497
:200473002F7F00AD2C7E00ED24FFFBEE34FFFC8F017A00C3E99BEA64808CF063F08095F049
:20049300501FEF2529FAE4352AFBAC2B8A828B838CF0120FA4F582C00712042FD0070F804A
:2004B300C21DBDFF011EED2529FDEE352AFEAF2B8D828E838FF0120FA4F58212043822AF18
:2004D30082C007120422D0078F0674FE5EF582C00712042F852D82120438120422D00774C4
:2004F300014FF58212042F7F00AD317E00ED24FFFBEE34FFFC8F017A00C3E99BEA64808C2F
:20051300F063F08095F0502ED2C2EF252EFAE4352FFBAC30C007C004C003C002120443A901
:2005330082D002D003D004D0078A828B838CF0E91208540F80B3C2C21DBDFF011EED252EEB
:20055300FDEE352FFEAF30C007C006C00512044CAC82D005D006D0078D828E838FF0EC125B
:20057300085422753223752932752A00752B40752820752C0175823012045D753200752993
:2005930032752A00752B40752821752C0175823012045D753200752932752A00752B407532
:2005B3002822752C0175823012045D2212010A75822012011D1208451208501208361208E9
:2005D3003074EDC0E0740FC0E07480C0E01209AB158115811581E4F535F5361207648582DB
:2005F3003B7416C0E07410C0E07480C0E01209AB15811581158112077D85823C85833D74B1
:2006130040C0E07410C0E07480C0E01209AB1581158115811207A5AE828E3E7469C0E074FC
:2006330010C0E07480C0E01209AB1581158115811207C3AF828F3F7540007440C0E0741073
:20065300C0E07480C0E01209AB1581158115811207DC7492C0E07410C0E07480C0E012095D
:20067300AB15811581158112068EC3742C95357401953650030205E980F022AE3B7F00C0EA
:2006930006C00774B7C0E07410C0E07480C0E01209ABE58124FBF58174E5C0E07410C0E019
:2006B3007480C0E01209AB158115811581C03CC03D7423C0E07411C0E07480C0E01209AB5C
:2006D300E58124FBF5817450C0E07411C0E07480C0E01209AB158115811581AE3E7F00C03C
:2006F30006C0077493C0E07411C0E07480C0E01209ABE58124FBF58174C0C0E07411C0E000
:200713007480C0E01209AB158115811581C03FC04074FDC0E07411C0E07480C0E01209AB1B
:20073300E58124FBF581742AC0E07412C0E07480C0E01209AB1581158115817472C0E07431
:2007530012C0E07480C0E01209AB15811581158122752E46752F00753040752D00753101DB
:200773008545821204D285468222752E47752F00753040752D0D7531028545821204D2AF16
:20079300477E00AC487D00EC4206ED42078E828F8322752E4A752F00753040752D007531A4
:2007B300018549821204D2AE4A7F008E828F8322752E4B752F00753040752D0175310185EC
:2007D30049821204D2854B8222754D5175294D752A00752B40752800752C01854C821204BA
:2007F3005D22C0E0C0D030DF2C0535E4B5350205360533053474FE253350067541017533C7
:200813000074FC25345006754201753400C2DF75E90075F97053D8C0D0D0D0E03275CF9324
:20083300D2C62275D98175DAC243D84043E608D2AF2253A4C0AF80743F4FF5802275E127E0
:010853002282
:200FC4000A54797065206469676974733B20656E6420772F2300202020202025632563256D
:200FE4006325632563002563000D0A0A0A0A456D62656464656420436F6E74726F6C20484A
:201004006F6D65776F726B20313020436F64650D0A000D0A52656164436F6D7061737343E9
:20102400686172206861732065786563757465642070726F7065726C790D0A000D0A52651C
:201044006164436F6D70617373496E74206861732065786563757465642070726F7065723B
:201064006C790D0A000D0A5265616452616E676572436861722068617320657865637574F6
:2010840065642070726F7065726C790D0A000D0A73746172745F70696E672068617320659C
:2010A400786563757465642070726F7065726C790D0A000D0A54686520526567697374655B
:2010C40072203020627974652066726F6D2074686520636F6D706173732069733A2025753B
:2010E400000D0A546869732069732074686520736F667477617265207265766973696F6EC6
:20110400206E756D62657220666F722074686520636F6D70617373206D6F64656C2E000DD8
:201124000A54686520322D6279746520696E74656765722066726F6D2074686520636F6DAB
:20114400706173732069733A202564000D0A546869732073686F756C642062652065717545
:20116400616C20746F207A65726F2069662074686520636F6D7061737320697320776F72E1
:201184006B696E672070726F7065726C792E000D0A546865205265676973746572203020CA
:2011A400627974652066726F6D207468652072616E6765722069733A202575000D0A5468E0
:2011C40069732069732074686520736F667477617265207265766973696F6E206E756D62E6
:2011E400657220666F72207468652072616E676572206D6F64656C2E000D0A5468652052A4
:2012040065676973746572203120627974652066726F6D207468652072616E676572206955
:20122400733A202575000D0A54686973206973207468652076616C7565206265696E6720B5
:2012440072657475726E65642066726F6D20746865206C696768742073656E736F72206F6B
:201264006E207468652072616E6765722E000D0A49742073686F756C642072616E676520FE
:2012840066726F6D20302876657279206461726B2920746F203235352876657279206C69CB
:0612A400676874292E00AA
:06008000E478FFF6D8FD54
:20005E007900E94400601B7A009012B5785175AF00E493F2A308B8000205AFD9F4DAF27513
:02007E00AFFFD2
:1B08540020F71130F6138883A88220F509F6A8837583002280FEF280F5F022A3
:1D086F00E5828511F0A4C582C0F08512F0A4D0F025F0C5838511F0A42583F5832230
:20088C00C00F85810FC082058105810581E50F24FBF8A90F0909E6F70809E6F70809E6F706
:2008AC00A80F080886820886830886F0120FA4FAA3120FA4FBA3120FA4FF74012AFCE43B8B
:2008CC00FD8F06A80F080886820886830886F0EC120854A3ED120854A3EE1208548A828B2E
:2008EC00838FF0A80F08E6120854850F81D00F2285820C85830D85F00E755A0C755B0075F6
:20090C005C4085085D85095E850A5F850B6090088C120A82AE82AF83AB0CAC0DAD0E8B821F
:20092C008C838DF0E41208548E828F8322C00F85810FE50F24F8FF8F60E50F24FBFF8F5AAC
:20094C00755B00755C40E50F24F8F8865D08865E08865F90088C120A82AE82AF83E50F24AA
:1B096C00FBF886030886040886058B828C838DF0E41208548E828F83D00F22C1
:200086007800E84400600A790175AF00E4F309D8FC7850E84400600C7901900001E4F0A318
:0400A600D8FCD9FAAF
:20098700C00F85810F12011DD00F2285825D85835E85F05FE4F55AF55BF55C85106090093B
:2009A70087020A82C00F85810FE50F24FBFF8F60E4F55AF55BF55CE50F24FBF8865D0886E6
:0D09C7005E08865F900987120A82D00F2219
:2009D400AF82C050C051C0521209E18007C04EC04F8F82221581158115810558E4B55802BA
:2009F400055922AF8274302FFF24C6500A74072FFF3000034307208F820209D4E582FFC4BC
:200A1400540FF582C0071209F7D007740F5FF5820209F7858211855312855413855514857C
:200A34005615AA57751620EA2AFAE515235401FF8A064EFAE5122512F512E51333F513E5E7
:200A54001433F514E51533F515C3EA95114008EAC39511FA431201E51614FF8F1670C8854D
:200A740012538513548514558515568A572285824E85834F855A50855B51855C52E4F558C0
:200A9400F559AD5DAE5EAF5F8D828E838FF0120FA4FC74012DF55DE43EF55E8F5FECFF70BE
:200AB40003020F85BF25028003020F7DC201C202C203C204C205C206C207C2087561007513
:200AD40062007CFFAA5DAB5EAE5F8A828B838EF0120FA4FFA3AA82AB838A5D8B5E8E5FBF33
:200AF40025078F821209D480998F6474D025645026E56424C64020BCFF12E56275F00AA4AD
:200B1400FD2F24D0F56270C2D20280BEEC75F00AA42F24D0FC80B3BF2E07BCFFAD7C00805D
:200B3400A98F05BD6100400CED248540075307DFD2008002C200BF2002806DBF2B02806331
:200B5400BF2D028059BF42028063BF43028068BF4403020D27BF4603020D3DBF4803020A42
:200B7400DEBF4903020D27BF4A03020ADEBF4C028040BF4F03020D2EBF5003020CBCBF5343
:200B940002805CBF5403020ADEBF5503020D33BF5803020D38BF5A03020ADE020D41D20180
:200BB400020ADED203020ADED204020ADED206020ADED207020ADE30060CE56014FE8E60AC
:200BD4008E0187078011E56024FEFE8E608E018705098706198D078F821209D4020D4AE564
:200BF4006024FDFE8E608E01870309870509870619198B538D548E558B828D838EF0C004FD
:200C1400120F8CAD82AE83D004BCFF028D0420012AC3ED95625024E562C39DF562AE628E8F
:200C3400031EEB6014758220C006C005C0041209D4D004D005D00680E68E628C068553820A
:200C54008554838555F0120FA4FCFF602F8E041EC374808CF063F08095F050208F82C00689
:200C7400C0051209D4D005D006AA53AB54AC550ABA00010B8A538B548C5580C12001030230
:200C94000D4AC3ED95624003020D4AE562C39DF562AE628E041EEC7003020D48758220C05B
:200CB400061209D4D00680EBE56024FDFC8C608C01870209870309870419198A538B548CE5
:200CD40055AC55BC800040047F438014BC600040047F50800BBC400040047F4980027F58B9
:200CF4008F82C0071209D475823A1209D47582301209D47582781209D4D007BF4902800B19
:200D1400BF50028006855482120A10855382120A108023D20575610A801C7561088017753B
:200D3400610A8012756110800DD20880098F821209D480028E6230085CE56024FCFE8E6075
:200D54008E0187020987030987040987061919198A538B548C558E567553AA7554127555C7
:200D74008085536585546685556774012565FAE43566FCAE678A538C548E558565828566A2
:200D9400838567F0120FA4FEFF7003020A968F821209D480CCE5617003020A9675631C303E
:200DB400062DE56014FC8C608C01E7FA3395E0FBFCFE8A538B548C558E56200566AA537B1C
:200DD400007C007E008A538B548C558E568054300721E56024FCFE8E608E0187020987035C
:200DF4000987040987061919198A538B548C558E568030E56024FEFE8E608E01870409873C
:200E14000619EE3395E0FBFA8C538E548B558A56200510AA53AB547C007E008A538B548C20
:200E3400558E56300522E55630E71BC3E49553FAE49554FBE49555FCE49556FE8A538B54FD
:200E54008C558E568002C205D209A9637E00755700856182C006C001120A27D001D0062046
:200E7400090BE557C4FCE7FB4CF7198002A7570EB209E55345544555455670D289638E0500
:200E9400E5627003756201200224200121ED04FEAC62C3EE9C5015758220C006C005C0040F
:200EB4001209D4D004D005D0061C80E68C6230050E75822DC0051209D4D00515628023ED49
:200ED400602030030E75822BC0051209D4D0051562800F30040C758220C0051209D4D005AC
:200EF4001562200122AE628E041EC3ED9C502B3002047C3080027C208C82C006C0051209E9
:200F1400D4D005D00680E0C3ED95625008E562C39DF562800775620080028E62A9638D0672
:200F34008E051EED6026B20920090A09E7C4540FFD8D5780078705740F5DF557855782C036
:200F540006C0011209F7D001D00680D4200103020A96AE628E051EED7003020A9675822009
:180F7400C0061209D4D00680EB8F821209D4020A9685588285598322EB
:0B12AA003C4E4F20464C4F41543E008C
:180F8C00AA82AB83120FA46003A380F8C3E5829AF582E5839BF58322D8
:0D005100758167120FC0E582600302004E4A
:1C0FA40020F71430F6148883A88220F507E6A88375830022E280F7E49322E0225C
:040FC0007582002214
:00000001FF
