:040000000200513277
:01000B0032C2
:0100130032BA
:01001B0032B2
:0100230032AA
:01002B0032A2
:01003300329A
:01003B003292
:01004300328A
:03004B00020C9E06
:2000AA00753300753400753500753600753700E4F538F539F53AF53B753C01753D01753E2E
:2000CA00C0753FE075430775440D7545297546097547C875480AF549F54AF54BF54CF54D0B
:0B00EA00F54EF551F552F55302004EA3
:03004E000205E1C7
:2000F50075B1677E007F01EE24FFFCEF34FFFD8C068D07EC4D70F0E5B130E7FB75B28822FC
:20011500759850758920758DDCD28E438E10438780D29943A4012275FFDE75FFAD1200F5F7
:2001350012011543E10443E34022AF8210990280FB8F992210980280FB85998212013F8595
:200155009982222098057582FF800BC29885998212013F85998222C00F85810FE50F24FB0A
:20017500F886820886830886F012162FE5828583F045F07002805EE50F24FBFF8F0BE50F00
:2001950024FBF8860808860908860A90000175F000120ED290000175F00012162FAE827F92
:2001B50000C3EF9E501BEF2401FCE43400FD8C828D83E0FBBB0A078C828D83740DF00F8067
:2001D500E0752901752A00752B007528008E2C7582C612047FD00F2275220074C025224050
:2001F50017752E22752F00753040752D007531017582C61204F480E375230C752923752A0E
:2002150000752B40752800752C017582C612047F22752E26752F00753040752D0175310299
:200235007582C61204F4AF26BFFF0575820080607E008E258525F005F07B017C008006EB4A
:200255002BFBEC33FCD5F0F78F027D00EA5203ED5204EB4C600774312EF58280330525AE89
:200275002574F8252550CDE527FF30E005758239801EEF30E10575822A8015EF30E205754D
:200295008230800CEF30E30575822380037582FF22AF82E4FDFEEF701DC006C0057401C003
:2002B500E07417C0E07480C0E012016C158115811581D005D006C006C0057408C0E0E4C053
:2002D500E07408C0E0E4C0E07408C0E0E4C0E07408C0E0E4C0E07408C0E0E4C0E07417C05E
:2002F500E07417C0E07480C0E012016CE58124F3F58190A12075F007E412041AD005D0065C
:200315007F00C007C006C005120226AC82D005D006D0078C03BCFF028003BB2A179027107B
:20033500E4F5F0C007C006C00512041AD005D006D00780CEBB232AC006C005120226AC8292
:20035500D005D006BC2313902710E4F5F0C006C00512041AD005D00680DD8D828E83020472
:2003750019EBFA3395E0FCC007C006C005C004C003C002C002C0047427C0E07417C0E074CB
:2003950080C0E012016CE58124FBF581D002D003D004D005D0068D118E1290000AC004C02E
:2003B50003C002120E45A882A983D002D003D004D007EA28F8EC39F9E824D0FDE934FFFE3D
:2003D500C007C006C005C003120226AC82D003D005D006D007ECB5031B902710E4F5F0C027
:2003F50007C006C005C00312041AD003D005D006D00780CC0FC3EF64809485500302031795
:200415008D828E8322AC82AD83AEF0FF780079007A007B00C3E89CE99DEA9EEB9F500F085E
:20043500B8000909B900050ABA00E90B80E62220C7FDD2C530C3FDC2C5C2C3228582C2106D
:20045500C30280FB228582C2D2C410C30280FB2230C3FD85C282C2C32230C3FDAFC2C2C30E
:20047500D2C410C30280FB8F8222AF82C007120444D00774FE5FF582120451852882120431
:20049500517F00AD2C7E00ED24FFFBEE34FFFC8F017A00C3E99BEA64808CF063F08095F005
:2004B500501FEF2529FAE4352AFBAC2B8A828B838CF0121647F582C007120451D0070F805C
:2004D500C21DBDFF011EED2529FDEE352AFEAF2B8D828E838FF0121647F58212045A22AF2A
:2004F50082C007120444D0078F0674FE5EF582C007120451852D8212045A120444D007741A
:20051500014FF5821204517F00AD317E00ED24FFFBEE34FFFC8F017A00C3E99BEA64808CEA
:20053500F063F08095F0502ED2C2EF252EFAE4352FFBAC30C007C004C003C002120465A9BD
:2005550082D002D003D004D0078A828B838CF0E9120E1D0F80B3C2C21DBDFF011EED252EFA
:20057500FDEE352FFEAF30C007C006C00512046EAC82D005D006D0078D828E838FF0EC1217
:200595000E1D22753223752932752A00752B40752820752C0175823012047F753200752980
:2005B50032752A00752B40752821752C0175823012047F753200752932752A00752B4075EE
:2005D5002822752C0175823012047F2212012C75822012013F120C74120C78120C4B120CE5
:2005F50039120C981201ED742AC0E07417C0E07480C0E012016C1581158115817439C0E06C
:200615007417C0E07480C0E012103415811581158175EC3275FCF5AF4774FFC39FF5EA74D7
:20063500FFC3954774FF9548FF8FFA120C2F12069230B7051206CB80F820B7F51207711289
:2006550007851207CFAE517F00C006C007C052C053C04BC04CC049C04AC04DC04EC03AC0E2
:200675003BC038C0397449C0E07417C0E07480C0E0121034E58124EFF58180BD22754D8433
:20069500754E03755601755700120C2F120A087549CD754A0A75EC3275FCF585474B854845
:2006B5004CAF4B74FFC39FF5EA74FFC3954B74FF954CFF8FFA227549CD754A0A75EC3275BB
:2006D500FCF585474B85484CAF4B74FFC39FF5EA74FFC3954B74FF954CFF8FFA1201ED74D0
:2006F5008AC0E07417C0E07480C0E012016C15811581158122752E40752F00753040752D8B
:2007150002753102853E821204F4AF407E00AC417D00EC4206ED42078E828F8322752E4063
:20073500752F00753040752D02753102853F821204F4AF407E00AC417D00EC4EF582ED4FBB
:20075500F58322754251752942752A00752B40752800752C01853F8212047F22E53C600CBA
:2007750012070A85823A85833B753C00120A9922E53D6042753D00120732858238858339F4
:20079500C3E5389419E53994005013E5384539600DE55124F0500575510F80020551754099
:2007B50051752940752A00752B40752800752C017582E012047F120B6422E5347003020892
:2007D5006E7534001201ED75110A751200853A82853B83120CF0AE82AF83C006C00774AE33
:2007F500C0E07417C0E07480C0E012016CE58124FBF581C038C03974BBC0E07417C0E074AC
:2008150080C0E012016CE58124FBF5817401B5352F758205120C82AF828F5275530085524E
:200835001185531290005F120E45858252858353758204120C82AF828F547555007535007D
:20085500C052C05374C5C0E07417C0E07480C0E012016CE58124FBF581221201ED7423B5DE
:200875005406E4B55502806F1201ED74D1C0E07417C0E07480C0E012016C15811581158145
:20089500C056C0577405C0E07418C0E07480C0E012016CE58124FBF581120226E582F554D9
:2008B5003395E0F555120C2F7432B55406E4B555028002800A0556E4B556A20557809E7459
:2008D50038B55406E4B5550280028091155674FFB5560215578086E55645577005755601C4
:2008F500F5571201EDC056C0577412C0E07418C0E07480C0E012016CE58124FBF581E4F531
:2009150054F555221201ED7425C0E07418C0E07480C0E012016C15811581158175820012BF
:2009350002A68582548583557401B55406E4B55502800280711201ED7456C0E07418C0E0C5
:200955007480C0E012016C1581158115817582001202A68582548583557402B55406E4B526
:20097500550280028005E4F54DF54E7406B55406E4B5550280028006754D84754E03740892
:20099500B55406E4B5550280028006754D08754E077404B55406E4B5550280028048754D24
:2009B5008C754E0A80407402B55406E4B55502800280337488C0E07418C0E07480C0E012F1
:2009D500016C1581158115817582011202A685824D85834E854D11854E1290000A120E45B0
:2009F50085824D85834E120C2F1201ED854D82854E83221201ED74B8C0E07418C0E0748033
:200A1500C0E012016C15811581158174D8C0E07418C0E07480C0E012016C158115811581F3
:200A3500120C2F1201ED74B8C0E07418C0E07480C0E012016C15811581158174ECC0E07413
:200A550018C0E07480C0E012016C158115811581120C2F1201ED74B8C0E07418C0E07480BB
:200A7500C0E012016C1581158115817400C0E07419C0E07480C0E012016C1581158115816A
:200A9500120C2F22E54DC3953AF54FE54E953BF550854F82855083120E38AE82AF83741096
:200AB500254FF582740E3550F583C007C006120E38AC82AD83D006D007C3EC9EED64808F1A
:200AD500F063F08095F04025854F11855012855682855783120E45AE82E583C313CE13CE4A
:200AF500FFE5472EF54BE5483FF54C802B7410254FFE740E3550FF8E118F1285568285577B
:200B150083120E45AE82E583C313CE13CEFFE5472EF54BE5483FF54CC3E54B9545E54C95E2
:200B350046500685454B85464CC3E543954BE544954C500685434B85444CAF4B74FFC39FB6
:200B5500F5EA74FFC3954B74FF954CFF8FFA22758204120C82121663AC82AD83AEF0FFC0AC
:200B750004C005C006C00790999A75F0B97440120D19AC82AD83AEF0FFE58124FCF581E462
:200B9500C0E07480C0E074FDC0E07444C0E08C828D838EF0EF120F5DAC82AD83AEF0FFE5BA
:200BB5008124FCF5818C828D838EF0EF120FB685824985834AC3E5389441E5399400500648
:200BD500754D08754E07C3E5389419E539940050067549CD754A0AE55124FC50067549CD4C
:200BF500754A0AC3E54994CDE54A940A50067549D7754A0AC374AE9549740D954A50067556
:200C150049AE754A0DAF4974FFC39FF5EC74FFC3954974FF954AFF8FFC22753600E5362452
:200C3500D250FA2275D98175DCC275DAC275D84043E608D2AF2243A50353A4C0AF80743F89
:200C55004FF580AFA7749F5FF5A743B060AFBD74CF5FF5BDAFA574CF5FF5A543903022751A
:200C7500E1272275D10375AA8043AB01228582ACAFAA74DF5FF5AA43AA10E5AA30E5FB85BE
:200C95009C822275CF93D2C622C0E0C0D010DF02804175E90075F970053305367402B5337F
:200CB50005753C0180177404B5331275330005377432B536028003753D01753C017432B5A5
:1B0CD50036067536007535017405B5370675370075340153D8C0D0D0D0E03244
:201701000A54797065206469676974733B20656E6420772F23002020202020256325632528
:20172100632563256300256300696E697469616C697A696E670D0A000A0A0A0D696E6974AC
:20174100616C697A696E67000A0D52616E67653A256420436F6D706173733A25642064682E
:201761003A2025642C206D50573A2025642C207350572025642C20626174743A25642C202D
:201781006F6273743A2025640054686520736C696465737769746368206973206F66662E44
:2017A100205475726E206974206F6E2E000D48656164696E673A202575000D52616E67658C
:2017C1003A2575000D566F6C746167653A2564000D5072657373203220746F20696E637257
:2017E10065617365206761696E2C207072657373203820746F2064656372656173652067D4
:2018010061696E000D4761696E2069733A202564000D596F7572206761696E2069733A2053
:2018210025640A005072657373203120666F72206C697374206F72205072657373203220D3
:20184100666F7220612073706563696669632076616C7565005072657373203220666F7256
:201861002030206465672C203620666F722039302C203820666F72203138302C20342066AB
:201881006F7220323730000D456E74657220796F7572206465736972656420686561646998
:2018A1006E67206265747765656E203020616E64203336303A0A00546F2073657420737076
:2018C1006565642C2061646A75737420704D65746572206E6F77000A33207365636F6E6428
:2018E1007320746F20646F20736F000A32207365636F6E647320746F20646F20736F000A2F
:1319010031207365636F6E647320746F20646F20736F009B
:200CF0007A10E4FBFCE58225E0F582E58333F583EB33FBEC33FCEB9511F5F0EC9512400606
:090D1000FCABF0438201DADD22A4
:200D1900120DBCBC0003020FE2EF60FA30D502B2D1E583B4FF03020FF8E582B4FF03020F05
:200D3900F8258340072482400B020FE22483145003020FF8F582EA8DF0A4A8F0EA8EF0A492
:200D590028F8E435F0F9EB8DF0A428E935F0F9E433CA8FF0A429F9EA35F0FAEBF88EF0A4E9
:200D790029F9EA35F0FAE433FBEC8DF0A429F9EA35F0FAE43BFBE88FF0A42AFAEB35F0FB91
:200D9900E433CCFD8EF0A42AFAEB35F0FBE43CFCED8FF0A42BFBEC35F0FC20E703120DEA97
:030DB900020FC165
:200DBC00AA82AB83A2F73392D1F5826002D2F7ACF0E58124F9F8E6FD08E6FE0886F008E69A
:0E0DDC00A2F73392D5F5836002D2F7AFF02272
:06008000E478FFF6D8FD54
:200DEA007804EC7011E58224F8500AF582E4C9CACBFCD8EF22EC7820058220E713D5820108
:130E0A0022C3E933F9EA33FAEB33FBEC33FCD8EA15822215
:20005E007900E94400601B7A0090191F785175AF00E493F2A308B8000205AFD9F4DAF275A2
:02007E00AFFFD2
:1B0E1D0020F71130F6138883A88220F509F6A8837583002280FEF280F5F022D4
:0D0E3800E58330E7076382FF6383FFA32299
:1D0E4500E5828511F0A4C582C0F08512F0A4D0F025F0C5838511F0A42583F5832254
:200E6200C00F85810FC082058105810581E50F24FBF8A90F0909E6F70809E6F70809E6F72A
:200E8200A80F080886820886830886F0121647FAA3121647FBA3121647FF74012AFCE43BB1
:200EA200FD8F06A80F080886820886830886F0EC120E1DA3ED120E1DA3EE120E1D8A828BE5
:200EC200838FF0A80F08E6120E1D850F81D00F2285820C85830D85F00E75640C7565007537
:200EE2006640850867850968850A69850B6A900E6212110BAE82AF83AB0CAC0DAD0E8B82A6
:200F02008C838DF0E4120E1D8E828F8322C00F85810FE50F24F8FF8F6AE50F24FBFF8F64ED
:200F2200756500756640E50F24F8F88667088668088669900E6212110BAE82AF83E50F2430
:1B0F4200FBF886030886040886058B828C838DF0E4120E1D8E828F83D00F2216
:200086007800E84400600A790175AF00E4F309D8FC7850E84400600C7901900001E4F0A318
:0400A600D8FCD9FAAF
:200F5D00120DBC7900E583B58202800D5003121615E583C39582121681E5D0C465D020E1C8
:200F7D0017EA2DFAEB3EFBEC3FFC50097401121681EC4480FC020FC1C3EA9DFAEB9EFBEC38
:190F9D009FFC500FC3E499F9E49AFAE49BFBE49CFCB2D1120DEA020FC13C
:0B0FB6007F8E1216CAF58385F08222A0
:200FC100B98003EA13B34010EA2401FAE43BFBE43CFC50047C800582BC000EBB000BBA0074
:200FE10008E4F5F0F583F58222A2D1E582138CF092F78B838A8222E4F583F58275F080F434
:0F100100A2D11322E4F583F58275F0C0747F222B
:20101000C00F85810F12013FD00F2285826785836885F069E4F564F565F56685106A90103C
:201030001002110BC00F85810FE50F24FBFF8F6AE4F564F565F566E50F24FBF8866708860B
:0D1050006808866990101012110BD00F2255
:20105D00AF82C05AC05BC05C12106A8007C058C0598F82221581158115810562E4B5620254
:20107D00056322AF8274302FFF24C6500A74072FFF3000034307208F8202105DE582FFC492
:20109D00540FF582C007121080D007740F5FF582021080858211855D12855E13855F1485AF
:2010BD006015AA61751620EA2AFAE515235401FF8A064EFAE5122512F512E51333F513E544
:2010DD001433F514E51533F515C3EA95114008EAC39511FA431201E51614FF8F1670C885BE
:2010FD00125D85135E85145F8515608A612285825885835985645A85655B85665CE4F562A5
:20111D00F563AD67AE68AF698D828E838FF0121647FC74012DF567E43EF5688F69ECFF703E
:20113D000302160EBF25028003021606C201C202C203C204C205C206C207C208756B007559
:20115D006C007CFFAA67AB68AE698A828B838EF0121647FFA3AA82AB838A678B688E69BFB3
:20117D0025078F8212105D80998F6E74D0256E5026E56E24C64020BCFF12E56C75F00AA465
:20119D00FD2F24D0F56C70C2D20280BEEC75F00AA42F24D0FC80B3BF2E07BCFFAD7C0080C4
:2011BD00A98F05BD6100400CED248540075307DFD2008002C200BF2002806DBF2B028063A2
:2011DD00BF2D028059BF42028063BF43028068BF44030213B0BF46030213C6BF480302118E
:2011FD0067BF49030213B0BF4A03021167BF4C028040BF4F030213B7BF5003021345BF53ED
:20121D0002805CBF5403021167BF55030213BCBF58030213C1BF5A030211670213CAD20123
:20123D00021167D203021167D204021167D206021167D20702116730060CE56A14FE8E6A38
:20125D008E0187078011E56A24FEFE8E6A8E018705098706198D078F8212105D0213D3E5A1
:20127D006A24FDFE8E6A8E01870309870509870619198B5D8D5E8E5F8B828D838EF0C0043B
:20129D0012162FAD82AE83D004BCFF028D0420012AC3ED956C5024E56CC39DF56CAE6C8E2E
:2012BD00031EEB6014758220C006C005C00412105DD004D005D00680E68E6C8C06855D82D7
:2012DD00855E83855FF0121647FCFF602F8E041EC374808CF063F08095F050208F82C0063C
:2012FD00C00512105DD005D006AA5DAB5EAC5F0ABA00010B8A5D8B5E8C5F80C120010302D5
:20131D0013D3C3ED956C40030213D3E56CC39DF56CAE6C8E041EEC70030213D1758220C0F6
:20133D000612105DD00680EBE56A24FDFC8C6A8C01870209870309870419198A5D8B5E8C9D
:20135D005FAC5FBC800040047F438014BC600040047F50800BBC400040047F4980027F5815
:20137D008F82C00712105D75823A12105D75823012105D75827812105DD007BF4902800B49
:20139D00BF50028006855E82121099855D821210998023D205756B0A801C756B0880177566
:2013BD006B0A8012756B10800DD20880098F8212105D80028E6C30085CE56A24FCFE8E6A24
:2013DD008E0187020987030987040987061919198A5D8B5E8C5F8E60755D14755E19755F81
:2013FD0080855D6F855E70855F717401256FFAE43570FCAE718A5D8C5E8E5F856F82857087
:20141D00838571F0121647FEFF700302111F8F8212105D80CCE56B700302111F756D1C3036
:20143D00062DE56A14FC8C6A8C01E7FA3395E0FBFCFE8A5D8B5E8C5F8E60200566AA5D7B46
:20145D00007C007E008A5D8B5E8C5F8E608054300721E56A24FCFE8E6A8E01870209870390
:20147D000987040987061919198A5D8B5E8C5F8E608030E56A24FEFE8E6A8E018704098770
:20149D000619EE3395E0FBFA8C5D8E5E8B5F8A60200510AA5DAB5E7C007E008A5D8B5E8C41
:2014BD005F8E60300522E56030E71BC3E4955DFAE4955EFBE4955FFCE49560FE8A5D8B5E14
:2014DD008C5F8E608002C205D209A96D7E00756100856B82C006C0011210B0D001D00620F6
:2014FD00090BE561C4FCE7FB4CF7198002A7610EB209E55D455E455F456070D2896D8E052B
:20151D00E56C7003756C01200224200121ED04FEAC6CC3EE9C5015758220C006C005C00461
:20153D0012105DD004D005D0061C80E68C6C30050E75822DC00512105DD005156C8023ED85
:20155D00602030030E75822BC00512105DD005156C800F30040C758220C00512105DD005F2
:20157D00156C200122AE6C8E041EC3ED9C502B3002047C3080027C208C82C006C00512103E
:20159D005DD005D00680E0C3ED956C5008E56CC39DF56C8007756C0080028E6CA96D8D061E
:2015BD008E051EED6026B20920090A09E7C4540FFD8D6180078705740F5DF561856182C089
:2015DD0006C001121080D001D00680D420010302111FAE6C8E051EED700302111F758220C0
:1815FD00C00612105DD00680EB8F8212105D02111F8562828563832298
:0B1914003C4E4F20464C4F41543E001B
:1A161500E582C583F582A2D133A2D592D11392D5ECCFFCEBCEFBEACDFA225D
:18162F00AA82AB831216476003A380F8C3E5829AF582E5839BF5832284
:0D0051007581711216C4E582600302004E35
:1C16470020F71430F6148883A88220F507E6A88375830022E280F7E49322E022B2
:0B166300E4AC82FBFAF97486021677F3
:13166E00FCABF0AA83A982749EC2D1F582120DEA020FC183
:201681006040F82582500274FFF582E824F8501ECCCBCAF9E4CC24F85014CBCAF9E4CB2471
:2016A100F8500BCAF9E4CA24F8500379002224086010F8C3EC13FCEB13FBEA13FAE913F924
:0316C100D8F1223B
:0416C4007582002209
:2016C8007F9E1216EF30D103020FE2C3EF9582500974FFF5F0F583F58222790012168189A1
:0716E800828A838BF0EC22E3
:1216EF00AA82AB83A2F73392D1F5826002D2F7ACF02200
:00000001FF
