:03000000020006F5
:06005F00751B0002000306
:03000300020551A2
:2000650075B1677E007F01EE24FFFCEF34FFFD8C068D07EC4D70F0E5B130E7FB75B288228C
:20008500759850758920758DDCD28E438E10438780D29943A4012275FFDE75FFAD12006518
:2000A50012008543E10443E34022AF8210990280FB8F992210980280FB8599821200AF8548
:2000C5009982222098057582FF800BC2988599821200AF85998222C01C85811CE51C24FB05
:2000E500F886820886830886F0120D29E5828583F045F07002805EE51C24FBFF8F25E51C6C
:2001050024FBF8862208862308862490000175F00012067090000175F000120D29AE827F4D
:2001250000C3EF9E501BEF2401FCE43400FD8C828D83E0FBBB0A078C828D83740DF00F80F7
:20014500E0750F01751000751100750E008E127582C61203EFD01C2275080074C02508401A
:20016500177514087515007516407513007517017582C612046480E375090C750F09751032
:2001850000751140750E007512017582C61203EF2275140C751500751640751301751702A5
:2001A5007582C6120464AF0CBFFF0575820080607E008E0B850BF005F07B017C008006EBB9
:2001C5002BFBEC33FCD5F0F78F027D00EA5203ED5204EB4C600774312EF5828033050BAE34
:2001E5000B74F8250B50CDE50DFF30E005758239801EEF30E10575822A8015EF30E205752C
:200205008230800CEF30E30575822380037582FF22AF82E4FDFEEF701DC006C0057499C0FB
:20022500E0740DC0E07480C0E01200DC158115811581D005D006C006C0057408C0E0E4C07E
:20024500E07408C0E0E4C0E07408C0E0E4C0E07408C0E0E4C0E07408C0E0E4C0E074AFC056
:20026500E0740DC0E07480C0E01200DCE58124F3F58190A12075F007E412038AD005D00618
:200285007F00C007C006C005120196AC82D005D006D0078C03BCFF028003BB2A179027109D
:2002A500E4F5F0C007C006C00512038AD005D006D00780CEBB232AC006C005120196AC8245
:2002C500D005D006BC2313902710E4F5F0C006C00512038AD005D00680DD8D828E83020395
:2002E50089EBFA3395E0FCC007C006C005C004C003C002C002C00474BFC0E0740DC0E0745E
:2003050080C0E01200DCE58124FBF581D002D003D004D005D0068D438E4490000AC004C0EB
:2003250003C0021205E3A882A983D002D003D004D007EA28F8EC39F9E824D0FDE934FFFE38
:20034500C007C006C005C003120196AC82D003D005D006D007ECB5031B902710E4F5F0C048
:2003650007C006C005C00312038AD003D005D006D00780CC0FC3EF64809485500302028747
:200385008D828E8322AC82AD83AEF0FF780079007A007B00C3E89CE99DEA9EEB9F500F08EF
:2003A500B8000909B900050ABA00E90B80E62220C7FDD2C530C3FDC2C5C2C3228582C210FE
:2003C500C30280FB228582C2D2C410C30280FB2230C3FD85C282C2C32230C3FDAFC2C2C39F
:2003E500D2C410C30280FB8F8222AF82C0071203B4D00774FE5FF5821203C1850E821203FF
:20040500C17F00AD127E00ED24FFFBEE34FFFC8F017A00C3E99BEA64808CF063F08095F03F
:20042500501FEF250FFAE43510FBAC118A828B838CF0120D41F582C0071203C1D0070F80DA
:20044500C21DBDFF011EED250FFDEE3510FEAF118D828E838FF0120D41F5821203CA22AFA8
:2004650082C0071203B4D0078F0674FE5EF582C0071203C18513821203CA1203B4D0077408
:20048500014FF5821203C17F00AD177E00ED24FFFBEE34FFFC8F017A00C3E99BEA64808C26
:2004A500F063F08095F0502ED2C2EF2514FAE43515FBAC16C007C004C003C0021203D5A92D
:2004C50082D002D003D004D0078A828B838CF0E91205C80F80B3C2C21DBDFF011EED251403
:2004E500FDEE3515FEAF16C007C006C0051203DEAC82D005D006D0078D828E838FF0EC126D
:2005050005C822751823750F18751000751140750E207512017582301203EF751800750FE9
:2005250018751000751140750E217512017582301203EF751800750F187510007511407513
:200545000E227512017582301203EF2212009C7582201200AF74C2C0E0740DC0E07480C060
:20056500E01207481581158115811200B985821BE51BF5433395E0F544900B7C1205E3AEAE
:2005850082AF8375431A754400C007C006120D5DE5828583F0D006D00724ECF51974073534
:2005A500F0F51AC019C01AC006C00774D3C0E0740DC0E07480C0E0120748E58124F9F58101
:0305C500809322FE
:200D99000A54797065206469676974733B20656E6420772F2300202020202025632563259A
:200DB9006325632563002563000A0D456E74657220696E7075743A2009000A0D32302A694B
:150DD9006E2A3134373D25642C204D4F544F52203D2025640028
:06003500E478FFF6D8FD9F
:200013007900E94400601B7A00900DF9785175AF00E493F2A308B8000205AFD9F4DAF2751F
:02003300AFFF1D
:1B05C80020F71130F6138883A88220F509F6A8837583002280FEF280F5F02232
:1D05E300E5828543F0A4C582C0F08544F0A4D0F025F0C5838543F0A42583F5832229
:20060000C01C85811CC082058105810581E51C24FBF8A91C0909E6F70809E6F70809E6F760
:20062000A81C080886820886830886F0120D41FAA3120D41FBA3120D41FF74012AFCE43B3B
:20064000FD8F06A81C080886820886830886F0EC1205C8A3ED1205C8A3EE1205C88A828B5C
:20066000838FF0A81C08E61205C8851C81D01C2285822685832785F02875352675360075CE
:20068000374085223885233985243A85253B90060012081FAE82AF83AB26AC27AD288B82A4
:2006A0008C838DF0E41205C88E828F8322C01C85811CE51C24F8FF8F3BE51C24FBFF8F35E0
:2006C000753600753740E51C24F8F8863808863908863A90060012081FAE82AF83E51C24CB
:1B06E000FBF886030886040886058B828C838DF0E41205C88E828F83D01C22D2
:20003B007800E84400600A790175AF00E4F309D8FC7850E84400600C7901900001E4F0A363
:04005B00D8FCD9FAFA
:2006FB007A10E4FBFCE58225E0F582E58333F583EB33FBEC33FCEB9543F5F0EC954440069D
:09071B00FCABF0438201DADD229F
:20072400C01C85811C1200AFD01C2285823885833985F03AE4F535F536F537851D3B9007E0
:200744002402081FC01C85811CE51C24FBFF8F3BE4F535F536F537E51C24FBF88638088698
:0D0764003908863A90072412081FD01C2285
:20077100AF82C02BC02CC02D12077E8007C029C02A8F82221581158115810533E4B5330287
:20079100053422AF8274302FFF24C6500A74072FFF3000034307208F82020771E582FFC4AB
:2007B100540FF582C007120794D007740F5FF582020794858243852E44852F458530468553
:2007D1003147AA32754820EA2AFAE547235401FF8A064EFAE5442544F544E54533F545E507
:2007F1004633F546E54733F547C3EA95434008EAC39543FA434401E54814FF8F4870C885F1
:20081100442E85452F8546308547318A322285822985832A85352B85362C85372DE4F53363
:20083100F534AD38AE39AF3A8D828E838FF0120D41FC74012DF538E43EF5398F3AECFF708B
:2008510003020D22BF25028003020D1AC201C202C203C204C205C206C207C208753C007567
:200871003D007CFFAA38AB39AE3A8A828B838EF0120D41FFA3AA82AB838A388B398E3ABF00
:2008910025078F8212077180998F3F74D0253F5026E53F24C64020BCFF12E53D75F00AA40B
:2008B100FD2F24D0F53D70C2D20280BEEC75F00AA42F24D0FC80B3BF2E07BCFFAD7C0080E8
:2008D100A98F05BD6100400CED248540075307DFD2008002C200BF2002806DBF2B02806397
:2008F100BF2D028059BF42028063BF43028068BF4403020AC4BF4603020ADABF4803020876
:200911007BBF4903020AC4BF4A0302087BBF4C028040BF4F03020ACBBF5003020A59BF53A1
:2009310002805CBF540302087BBF5503020AD0BF5803020AD5BF5A0302087B020ADED201E1
:2009510002087BD20302087BD20402087BD20602087BD20702087B30060CE53B14FE8E3B54
:200971008E0187078011E53B24FEFE8E3B8E018705098706198D078F82120771020AE7E5DE
:200991003B24FDFE8E3B8E01870309870509870619198B2E8D2F8E308B828D838EF0C0041B
:2009B100120D29AD82AE83D004BCFF028D0420012AC3ED953D5024E53DC39DF53DAE3D8EEE
:2009D100031EEB6014758220C006C005C004120771D004D005D00680E68E3D8C06852E821F
:2009F100852F838530F0120D41FCFF602F8E041EC374808CF063F08095F050208F82C0069E
:200A1100C005120771D005D006AA2EAB2FAC300ABA00010B8A2E8B2F8C3080C120010302D8
:200A31000AE7C3ED953D4003020AE7E53DC39DF53DAE3D8E041EEC7003020AE5758220C086
:200A510006120771D00680EBE53B24FDFC8C3B8C01870209870309870419198A2E8B2F8C43
:200A710030AC30BC800040047F438014BC600040047F50800BBC400040047F4980027F5868
:200A91008F82C00712077175823A120771758230120771758278120771D007BF4902800B12
:200AB100BF50028006852F821207AD852E821207AD8023D205753C0A801C753C0880177501
:200AD1003C0A8012753C10800DD20880098F8212077180028E3D30085CE53B24FCFE8E3BF9
:200AF1008E0187020987030987040987061919198A2E8B2F8C308E31752EEE752F0D7530F1
:200B110080852E40852F4185304274012540FAE43541FCAE428A2E8C2F8E3085408285410D
:200B3100838542F0120D41FEFF70030208338F8212077180CCE53C7003020833753E4E3074
:200B5100062DE53B14FC8C3B8C01E7FA3395E0FBFCFE8A2E8B2F8C308E31200566AA2E7B84
:200B7100007C007E008A2E8B2F8C308E318054300721E53B24FCFE8E3B8E0187020987039F
:200B91000987040987061919198A2E8B2F8C308E318030E53B24FEFE8E3B8E01870409877F
:200BB1000619EE3395E0FBFA8C2E8E2F8B308A31200510AA2EAB2F7C007E008A2E8B2F8CAE
:200BD100308E31300522E53130E71BC3E4952EFAE4952FFBE49530FCE49531FE8A2E8B2FB0
:200BF1008C308E318002C205D209A93E7E00753200853C82C006C0011207C4D001D00620CB
:200C1100090BE532C4FCE7FB4CF7198002A7320EB209E52E452F4530453170D2893E8E0568
:200C3100E53D7003753D01200224200121ED04FEAC3DC3EE9C5015758220C006C005C004E3
:200C5100120771D004D005D0061C80E68C3D30050E75822DC005120771D005153D8023EDC2
:200C7100602030030E75822BC005120771D005153D800F30040C758220C005120771D00500
:200C9100153D200122AE3D8E041EC3ED9C502B3002047C3080027C208C82C006C00512079A
:200CB10071D005D00680E0C3ED953D5008E53DC39DF53D8007753D0080028E3DA93E8D0619
:200CD1008E051EED6026B20920090A09E7C4540FFD8D3280078705740F5DF532853282C00B
:200CF10006C001120794D001D00680D4200103020833AE3D8E051EED7003020833758220C3
:180D1100C006120771D00680EB8F8212077102083385338285348322C9
:0B0DEE003C4E4F20464C4F41543E004D
:180D2900AA82AB83120D416003A380F8C3E5829AF582E5839BF58322A2
:0D00060075814E120D95E582600302000326
:1C0D410020F71430F6148883A88220F507E6A88375830022E280F7E49322E022C1
:200D5D00C2D5E58330E70DD2D5E4C39582F582E49583F583E54430E70DB2D5E4C39543F5BB
:180D7D0043E49544F5441206FB30D50BE4C39582F582E49583F5832237
:040D95007582002241
:00000001FF
