:040000000200513277
:01000B0032C2
:0100130032BA
:01001B0032B2
:0100230032AA
:01002B0032A2
:01003300329A
:01003B003292
:01004300328A
:03004B000202B5F9
:0F00AA00750888750913750A10750B2702004E2B
:03004E000201307C
:2000B90075B1677E007F01EE24FFFCEF34FFFD8C068D07EC4D70F0E5B130E7FB75B2882238
:2000D900759850758920758DDCD28E438E10438780D29943A4012275FFDE75FFAD1200B970
:2000F9001200D943E10443E34022AF8210990280FB8F992210980280FB859982120103854B
:200119009982222098057582FF800BC298859982120103859982221200F07582201201034A
:200139001202A11202A51202AB7403C0E07409C0E07480C0E01202EA15811581158174106D
:20015900C0E07409C0E07480C0E01202EA1581158115817439C0E07409C0E07480C0E01265
:2001790002EA1581158115817462C0E07409C0E07480C0E01202EA1581158115817487C016
:20019900E07409C0E07480C0E01202EA158115811581AC08AD09E4FEFF74FFC39CFC74FF69
:2001B9009DFDE49EFEE49FFF8CEB8DFB12010DAF82BF6125AB0AAC0B7D007E00C3EB94E864
:2001D900EC94FDED9400EE64809480500C74E8250AF50A7403350BF50BBF7317C374E89588
:2001F9000A7403950B500CE50A2418F50AE50B34FCF50BBF6B3DAB08AC097D007E00C3EBA7
:2002190094E8EC94FDED9400EE64809480502474E82508F50874033509F509AB08AC09E46C
:20023900FDFEC39BFBE49CFC74019DFDE49EFE8BEB8CFBBF6C31C374E895087403950950CC
:2002590026E5082418F508E50934FCF509AC08AD09E4FEFF74FFC39CFC74FF9DFDE49EFE77
:20027900E49FFF8CEB8DFBC008C009C00AC00B74ACC0E07409C0E07480C0E01202EAE581E9
:2002990024F9F5810201C52275E1272243E608D2AF2275D98175DBC243D8402230DF0A8559
:0D02B9000AE9850BF9C2DF800353D8C0327B
:200903000D0A20537461727420202020000D0A2061202D20696E637265617365732050439A
:200923004120737461727420636F756E742062792031303030000D0A2073202D20646563BD
:200943007265617365732050434120737461727420636F756E742062792031303030000D9D
:200963000A206B202D20696E637265617365732070756C73652077696474682062792031E0
:20098300303030000D0A206C202D206465637265617365732070756C73652077696474687C
:2009A300206279203130303000205043415F7374617274203D20257520205057203D202537
:0A09C300752020202020200D0A00DE
:06008000E478FFF6D8FD54
:20005E007900E94400601B7A009009D8780175AF00E493F2A308B8000205AFD9F4DAF27549
:02007E00AFFFD2
:200086007800E84400600A790175AF00E4F309D8FC7800E84400600C7900900001E4F0A369
:0400A600D8FCD9FAAF
:2002C600C00D85810D120103D00D2285823185833285F033E4F52EF52FF530850C34900262
:2002E600C60203C1C00D85810DE50D24FBFF8F34E4F52EF52FF530E50D24FBF8863108861B
:0D030600320886339002C61203C1D00D22CA
:20031300AF82C024C025C0261203208007C022C0238F8222158115811581052CE4B52C027C
:20033300052D22AF8274302FFF24C6500A74072FFF3000034307208F82020313E582FFC476
:20035300540FF582C007120336D007740F5FF58202033685820E85270F8528108529118562
:200373002A12AA2B751320EA2AFAE512235401FF8A064EFAE50F250FF50FE51033F510E51F
:200393001133F511E51233F512C3EA950E4008EAC3950EFA430F01E51314FF8F1370C88530
:2003B3000F2785102885112985122A8A2B22858222858323852E24852F25853026E4F52CFC
:2003D300F52DAD31AE32AF338D828E838FF01208E3FC74012DF531E43EF5328F33ECFF7082
:2003F300030208C4BF250280030208BCC201C202C203C204C205C206C207C2087535007597
:2004130036007CFFAA31AB32AE338A828B838EF01208E3FFA3AA82AB838A318B328E33BFF6
:2004330025078F8212031380998F3874D025385026E53824C64020BCFF12E53675F00AA4EB
:20045300FD2F24D0F53670C2D20280BEEC75F00AA42F24D0FC80B3BF2E07BCFFAD7C008051
:20047300A98F05BD6100400CED248540075307DFD2008002C200BF2002806DBF2B028063F9
:20049300BF2D028059BF42028063BF43028068BF4403020666BF460302067CBF48030204A0
:2004B3001DBF4903020666BF4A0302041DBF4C028040BF4F0302066DBF50030205FBBF53EB
:2004D30002805CBF540302041DBF5503020672BF5803020677BF5A0302041D020680D2012E
:2004F30002041DD20302041DD20402041DD20602041DD20702041D30060CE53414FE8E34AF
:200513008E0187078011E53424FEFE8E348E018705098706198D078F82120313020689E512
:200533003424FDFE8E348E01870309870509870619198B278D288E298B828D838EF0C004A0
:200553001208CBAD82AE83D004BCFF028D0420012AC3ED95365024E536C39DF536AE368ECF
:20057300031EEB6014758220C006C005C004120313D004D005D00680E68E368C06852782F1
:200593008528838529F01208E3FCFF602F8E041EC374808CF063F08095F050208F82C00671
:2005B300C005120313D005D006AA27AB28AC290ABA00010B8A278B288C2980C120010302C7
:2005D3000689C3ED95364003020689E536C39DF536AE368E041EEC7003020687758220C02B
:2005F30006120313D00680EBE53424FDFC8C348C01870209870309870419198A278B288C24
:2006130029AC29BC800040047F438014BC600040047F50800BBC400040047F4980027F58D8
:200633008F82C00712031375823A120313758230120313758278120313D007BF4902800BFC
:20065300BF5002800685288212034F85278212034F8023D20575350A801C75350880177543
:20067300350A8012753510800DD20880098F8212031380028E3630085CE53424FCFE8E34E0
:200693008E0187020987030987040987061919198A278B288C298E2A7527CD7528097529A9
:2006B3008085273985283A85293B74012539FAE4353AFCAE3B8A278C288E29853982853AD2
:2006D30083853BF01208E3FEFF70030203D58F8212031380CCE53570030203D575371930AC
:2006F300062DE53414FC8C348C01E7FA3395E0FBFCFE8A278B288C298E2A200566AA277B18
:20071300007C007E008A278B288C298E2A8054300721E53424FCFE8E348E0187020987032B
:200733000987040987061919198A278B288C298E2A8030E53424FEFE8E348E01870409870B
:200753000619EE3395E0FBFA8C278E288B298A2A200510AA27AB287C007E008A278B288C48
:20077300298E2A300522E52A30E71BC3E49527FAE49528FBE49529FCE4952AFE8A278B2851
:200793008C298E2A8002C205D209A9377E00752B00853582C006C001120366D001D00620B2
:2007B300090BE52BC4FCE7FB4CF7198002A72B0EB209E52745284529452A70D289378E05FC
:2007D300E5367003753601200224200121ED04FEAC36C3EE9C5015758220C006C005C0045B
:2007F300120313D004D005D0061C80E68C3630050E75822DC005120313D00515368023EDF7
:20081300602030030E75822BC005120313D0051536800F30040C758220C005120313D0052D
:200833001536200122AE368E041EC3ED9C502B3002047C3080027C208C82C006C00512030E
:2008530013D005D00680E0C3ED95365008E536C39DF536800775360080028E36A9378D0603
:200873008E051EED6026B20920090A09E7C4540FFD8D2B80078705740F5DF52B852B82C082
:2008930006C001120336D001D00680D42001030203D5AE368E051EED70030203D575822054
:1808B300C006120313D00680EB8F821203130203D5852C82852D832261
:0B09CD003C4E4F20464C4F41543E0072
:1808CB00AA82AB831208E36003A380F8C3E5829AF582E5839BF5832268
:0D00510075813B1208FFE582600302004E3E
:1C08E30020F71430F6148883A88220F507E6A88375830022E280F7E49322E02224
:0408FF0075820022DC
:00000001FF
