:040000000200513277
:01000B0032C2
:0100130032BA
:01001B0032B2
:0100230032AA
:01002B0032A2
:01003300329A
:01003B003292
:01004300328A
:03004B00020DFDA6
:2000AA00753300E4F534F535F536F5377538C07539E0753D07753E0D753F2975400975413B
:1900CA00C875420AF543F544F545F546F547F548F54BF54CF54D02004E22
:03004E000205CFD9
:2000E30075B1677E007F01EE24FFFCEF34FFFD8C068D07EC4D70F0E5B130E7FB75B288220E
:20010300759850758920758DDCD28E438E10438780D29943A4012275FFDE75FFAD1200E31B
:2001230012010343E10443E34022AF8210990280FB8F992210980280FB85998212012D85CB
:200143009982222098057582FF800BC29885998212012D85998222C00F85810FE50F24FB2E
:20016300F886820886830886F012175DE5828583F045F07002805EE50F24FBFF8F0BE50FE3
:2001830024FBF8860808860908860A90000175F00012100090000175F00012175DAE827F45
:2001A30000C3EF9E501BEF2401FCE43400FD8C828D83E0FBBB0A078C828D83740DF00F8079
:2001C300E0752901752A00752B007528008E2C7582C612046DD00F2275220074C025224074
:2001E30017752E22752F00753040752D007531017582C61204E280E375230C752923752A32
:2002030000752B40752800752C017582C612046D22752E26752F00753040752D01753102BD
:200223007582C61204E2AF26BFFF0575820080607E008E258525F005F07B017C008006EB6E
:200243002BFBEC33FCD5F0F78F027D00EA5203ED5204EB4C600774312EF58280330525AE9B
:200263002574F8252550CDE527FF30E005758239801EEF30E10575822A8015EF30E205755F
:200283008230800CEF30E30575822380037582FF22AF82E4FDFEEF701DC006C005742FC0E7
:2002A300E07418C0E07480C0E012015A158115811581D005D006C006C0057408C0E0E4C076
:2002C300E07408C0E0E4C0E07408C0E0E4C0E07408C0E0E4C0E07408C0E0E4C0E07445C042
:2002E300E07418C0E07480C0E012015AE58124F3F58190A12075F007E4120408D005D00691
:200303007F00C007C006C005120214AC82D005D006D0078C03BCFF028003BB2A179027109F
:20032300E4F5F0C007C006C005120408D005D006D00780CEBB232AC006C005120214AC82C8
:20034300D005D006BC2313902710E4F5F0C006C005120408D005D00680DD8D828E83020496
:2003630007EBFA3395E0FCC007C006C005C004C003C002C002C0047455C0E07418C0E074C0
:2003830080C0E012015AE58124FBF581D002D003D004D005D0068D118E1290000AC004C052
:2003A30003C002120F73A882A983D002D003D004D007EA28F8EC39F9E824D0FDE934FFFE20
:2003C300C007C006C005C003120214AC82D003D005D006D007ECB5031B902710E4F5F0C04B
:2003E30007C006C005C003120408D003D005D006D00780CC0FC3EF648094855003020305CB
:200403008D828E8322AC82AD83AEF0FF780079007A007B00C3E89CE99DEA9EEB9F500F0870
:20042300B8000909B900050ABA00E90B80E62220C7FDD2C530C3FDC2C5C2C3228582C2107F
:20044300C30280FB228582C2D2C410C30280FB2230C3FD85C282C2C32230C3FDAFC2C2C320
:20046300D2C410C30280FB8F8222AF82C007120432D00774FE5FF58212043F852882120467
:200483003F7F00AD2C7E00ED24FFFBEE34FFFC8F017A00C3E99BEA64808CF063F08095F029
:2004A300501FEF2529FAE4352AFBAC2B8A828B838CF0121775F582C00712043FD0070F8051
:2004C300C21DBDFF011EED2529FDEE352AFEAF2B8D828E838FF0121775F58212044822AF1F
:2004E30082C007120432D0078F0674FE5EF582C00712043F852D82120448120432D0077474
:20050300014FF58212043F7F00AD317E00ED24FFFBEE34FFFC8F017A00C3E99BEA64808C0E
:20052300F063F08095F0502ED2C2EF252EFAE4352FFBAC30C007C004C003C002120453A9E1
:2005430082D002D003D004D0078A828B838CF0E9120F4B0F80B3C2C21DBDFF011EED252EDD
:20056300FDEE352FFEAF30C007C006C00512045CAC82D005D006D0078D828E838FF0EC123B
:200583000F4B22753223752932752A00752B40752820752C0175823012046D753200752975
:2005A30032752A00752B40752821752C0175823012046D753200752932752A00752B407512
:2005C3002822752C0175823012046D2212011A75822012012D120DD3120DD7120DAA120D0C
:2005E30098120DF71201DB7458C0E07418C0E07480C0E012015A1581158115817467C0E086
:200603007418C0E07480C0E01211621581158115811201DB75EC3275FCF5AF4174FFC39F24
:20062300F5EA74FFC3954174FF9542FF8FFA120D8E1206B630B70512072580F820B7F5E52C
:200643003320E01B1207CBE5335403600280101207D575F014E53384E5F070031207F71297
:200663000AFA120BC5C034C0357477C0E07418C0E07480C0E0121162E58124FBF581C036E7
:20068300C0377482C0E07418C0E07480C0E0121162E58124FBF581C045C046748DC0E0746A
:2006A30018C0E07480C0E0121162E58124FBF581808A22749AC0E07418C0E07480C0E012BF
:2006C300015A15811581158175820012029485824E85834F7401B54E06E4B54F0280028045
:2006E3000E1201DB120CBE1201DBE4F54EF54F12097A1208FF120D8E120A697543CD7544A8
:200703000A75EC3275FCF5854145854246AF4574FFC39FF5EA74FFC3954574FF9546FF8F27
:20072300FA227543CD75440A75EC3275FCF5854145854246AF4574FFC39FF5EA74FFC395CE
:200743004574FF9546FF8FFA1201DB74CFC0E07418C0E07480C0E012015A158115811581BB
:2007630022752E3A752F00753040752D027531028538821204E2AF3A7E00AC3B7D00EC4272
:2007830006ED42078E828F8322752E3A752F00753040752D027531028539821204E2AF3A03
:2007A3007E00AC3B7D00EC4EF582ED4FF58322753C5175293C752A00752B40752800752C34
:2007C3000185398212046D221207648582368583372212078C858234858335753A5175295A
:2007E3003A752A00752B40752800752C017582E012046D221201DB75110A7512008547822F
:20080300854883120E1EAE82AF8375110A751200853682853783C007C006120E1EAC82ADAC
:2008230083D006D007C006C007C004C00574F3C0E07418C0E07480C0E012015AE58124F9B8
:20084300F581C034C0357403C0E07419C0E07480C0E012015AE58124FBF58175F032E53347
:2008630084E5F0702C758205120DE1AF828F4C754D00854C11854D1290005F120F73858266
:200883004C85834D758204120DE1AF828F4E754F00C3E5479536E5489537E433FF601BC0E3
:2008A3004CC04D740DC0E07419C0E07480C0E012015AE58124FBF581801CEF7019C04CC0B2
:2008C3004D741FC0E07419C0E07480C0E012015AE58124FBF581AE527F00AC4B7D00C006B3
:2008E300C007C004C0057432C0E07419C0E07480C0E012015AE58124F9F581221201DB74B4
:2009030044C0E07419C0E07480C0E012015A15811581158175820012029485824E85834FB5
:200923007402B54E06E4B54F0280028005E4F550F5517403B54E06E4B54F028002800675EE
:2009430050027551007404B54E06E4B54F02800280067550057551007405B54E06E4B54F0F
:200963000280028006755008755100120D8E1201DBE4F54EF54F221201DB7477C0E07419A9
:20098300C0E07480C0E012015A15811581158175820012029485824E85834F7401B54E0628
:2009A300E4B54F02800280711201DB74A8C0E07419C0E07480C0E012015A1581158115813D
:2009C30075820012029485824E85834F7402B54E06E4B54F0280028005E4F547F548740682
:2009E300B54E06E4B54F02800280067547847548037408B54E06E4B54F02800280067547C6
:200A0300087548077404B54E06E4B54F028002804875478C75480A80407402B54E06E4B56B
:200A23004F028002803374DAC0E07419C0E07480C0E012015A158115811581758201120243
:200A43009485824785834885471185481290000A120F73858247858348120D8E1201DB85B9
:200A63004782854883221201DB740AC0E0741AC0E07480C0E012015A158115811581742A9D
:200A8300C0E0741AC0E07480C0E012015A158115811581120D8E1201DB740AC0E0741AC0BB
:200AA300E07480C0E012015A158115811581743EC0E0741AC0E07480C0E012015A15811564
:200AC300811581120D8E1201DB740AC0E0741AC0E07480C0E012015A15811581158174528C
:200AE300C0E0741AC0E07480C0E012015A158115811581120D8E22E547C39536F549E5486E
:200B03009537F54A854982854A83120F66AE82AF8374102549F582740E354AF583C007C0D3
:200B230006120F66AC82AD83D006D007C3EC9EED64808FF063F08095F04025854911854A12
:200B430012855082855183120F73AE82E583C313CE13CEFFE5412EF545E5423FF546802B46
:200B630074102549FE740E354AFF8E118F12855082855183120F73AE82E583C313CE13CEE1
:200B8300FFE5412EF545E5423FF546C3E545953FE54695405006853F45854046C3E53D957F
:200BA30045E53E95465006853D45853E46AF4574FFC39FF5EA74FFC3954574FF9546FF8FF5
:200BC300FA22758204120DE1121791AC82AD83AEF0FFC004C005C006C00790999A75F0B94F
:200BE3007440120E47AC82AD83AEF0FFE58124FCF581E4C0E07480C0E074FDC0E07444C03F
:200C0300E08C828D838EF0EF12108BAC82AD83AEF0FFE58124FCF5818C828D838EF0EF1225
:200C230010E4858243858344C3E5349419E5359400E433FF60107401B5520BE534453560F0
:200C430029754B018024C3E5349441E53594005019E53445356013E552700F7552017484BF
:200C63002547F54774033548F548EF600CE534453560067543CD75440A7401B54B067543C9
:200C8300CD75440AC3E54394CDE544940A50067543D775440AC374AE9543740D9544500699
:200CA3007543AE75440DAF4374FFC39FF5EC74FFC3954374FF9544FF8FFC221207648582D3
:200CC300368583377466C0E0741AC0E07480C0E012015A158115811581758200120294850D
:200CE300824E85834F1201DB1207648582368583377485C0E0741AC0E07480C0E012015A1B
:200D030015811581158175820012029485824E85834F1207648582368583371201DB74A5C3
:200D2300C0E0741AC0E07480C0E012015A15811581158175820012029485824E85834F12C2
:200D430001DB12076485823685833774C6C0E0741AC0E07480C0E012015A158115811581F0
:200D630075820012029485824E85834F1201DB74E6C0E0741AC0E07480C0E012015A158178
:200D830015811581120D8E1201DB22753300E53324D250FA2275D98175DCC275DAC275D805
:200DA3004043E608D2AF2243A50353A4C0AF80743F4FF580AFA7749F5FF5A743B060AFBDB1
:200DC30074CF5FF5BDAFA574CF5FF5A54390302275E1272275D10375AA8043AB0122858268
:200DE300ACAFAA74DF5FF5AA43AA10E5AA30E5FB859C822275CF93D2C622C0E0C0D010DF89
:1B0E030002801075E90075F97005337464B5330375330053D8C0D0D0D0E032F6
:20182F000A54797065206469676974733B20656E6420772F230020202020202563256325F9
:20184F00632563256300256300696E697469616C697A696E670D0A000A0A0A0D696E69747D
:20186F00616C697A696E67000A0D52616E67653A256400436F6D706173733A2564000D0AF4
:20188F00537465657250573A2575002020202020202049662074686520636F6D70617373B5
:2018AF00206E6565647320746F2062652063616C6962726174656420707265737320310037
:2018CF0054686520736C696465737769746368206973206F66662E205475726E20697420AA
:2018EF006F6E2E000D48643A2025752C2064683A202575000D52616E67653A2575000D56E4
:20190F006F6C746167653A25642C206C656674000D566F6C746167653A25642C2072696752
:20192F006874000D4F74703A2025642C204874703A202564005072657373203220666F7278
:20194F002061206761696E206F662E352C203320666F7220322C203420666F7220352C2020
:20196F003520666F722038005072657373203120666F72206C697374206F72205072657308
:20198F0073203220666F7220612073706563696669632076616C7565005072657373203289
:2019AF0020666F722030206465672C203620666F722039302C203820666F72203138302CCF
:2019CF00203420666F7220323730000D456E74657220796F75722064657369726564206802
:2019EF00656164696E67206265747765656E203020616E64203336303A0A00546F2073650B
:201A0F00742073706565642C2061646A75737420704D65746572206E6F77000A3320736505
:201A2F00636F6E647320746F20646F20736F000A32207365636F6E647320746F20646F2027
:201A4F00736F000A31207365636F6E647320746F20646F20736F0046616365206E6F727401
:201A6F00682C207072657373203120616E642067726F756E64000D0A466163652065617344
:201A8F00742C207072657373203220616E642067726F756E64000D0A4661636520736F75F9
:201AAF0074682C207072657373203320616E642067726F756E64000D0A46616365207765EB
:201ACF0073742C207072657373203420616E642067726F756E6400436F6D706173732069E2
:0D1AEF00732063616C69627261746564004C
:200E1E007A10E4FBFCE58225E0F582E58333F583EB33FBEC33FCEB9511F5F0EC95124006D6
:090E3E00FCABF0438201DADD2275
:200E4700120EEABC0003021110EF60FA30D502B2D1E583B4FF03021126E582B4FF03021145
:200E670026258340072482400B0211102483145003021126F582EA8DF0A4A8F0EA8EF0A4D5
:200E870028F8E435F0F9EB8DF0A428E935F0F9E433CA8FF0A429F9EA35F0FAEBF88EF0A4BA
:200EA70029F9EA35F0FAE433FBEC8DF0A429F9EA35F0FAE43BFBE88FF0A42AFAEB35F0FB62
:200EC700E433CCFD8EF0A42AFAEB35F0FBE43CFCED8FF0A42BFBEC35F0FC20E703120F1838
:030EE7000210EF07
:200EEA00AA82AB83A2F73392D1F5826002D2F7ACF0E58124F9F8E6FD08E6FE0886F008E66B
:0E0F0A00A2F73392D5F5836002D2F7AFF02242
:06008000E478FFF6D8FD54
:200F18007804EC7011E58224F8500AF582E4C9CACBFCD8EF22EC7820058220E713D58201D8
:130F380022C3E933F9EA33FAEB33FBEC33FCD8EA158222E6
:20005E007900E94400601B7A00901B07785175AF00E493F2A308B8000205AFD9F4DAF275B8
:02007E00AFFFD2
:1B0F4B0020F71130F6138883A88220F509F6A8837583002280FEF280F5F022A5
:0D0F6600E58330E7076382FF6383FFA3226A
:1D0F7300E5828511F0A4C582C0F08512F0A4D0F025F0C5838511F0A42583F5832225
:200F9000C00F85810FC082058105810581E50F24FBF8A90F0909E6F70809E6F70809E6F7FB
:200FB000A80F080886820886830886F0121775FAA3121775FBA3121775FF74012AFCE43BF5
:200FD000FD8F06A80F080886820886830886F0EC120F4BA3ED120F4BA3EE120F4B8A828B29
:200FF000838FF0A80F08E6120F4B850F81D00F2285820C85830D85F00E755F0C75600075E3
:201010006140850862850963850A64850B65900F90121239AE82AF83AB0CAC0DAD0E8B8231
:201030008C838DF0E4120F4B8E828F8322C00F85810FE50F24F8FF8F65E50F24FBFF8F5F99
:20105000756000756140E50F24F8F88662088663088664900F90121239AE82AF83E50F24BC
:1B107000FBF886030886040886058B828C838DF0E4120F4B8E828F83D00F22B8
:200086007800E84400600A790175AF00E4F309D8FC7850E84400600C7901900001E4F0A318
:0400A600D8FCD9FAAF
:20108B00120EEA7900E583B58202800D5003121743E583C395821217AFE5D0C465D020E10C
:2010AB0017EA2DFAEB3EFBEC3FFC500974011217AFEC4480FC0210EFC3EA9DFAEB9EFBECAB
:1910CB009FFC500FC3E499F9E49AFAE49BFBE49CFCB2D1120F180210EFAE
:0B10E4007F8E1217F8F58385F0822242
:2010EF00B98003EA13B34010EA2401FAE43BFBE43CFC50047C800582BC000EBB000BBA0045
:20110F0008E4F5F0F583F58222A2D1E582138CF092F78B838A8222E4F583F58275F080F404
:0F112F00A2D11322E4F583F58275F0C0747F22FC
:20113E00C00F85810F12012DD00F2285826285836385F064E4F55FF560F561851065901141
:20115E003E021239C00F85810FE50F24FBFF8F65E4F55FF560F561E50F24FBF88662088698
:0D117E006308866490113E121239D00F22D2
:20118B00AF82C055C056C0571211988007C053C0548F8222158115811581055DE4B55D0219
:2011AB00055E22AF8274302FFF24C6500A74072FFF3000034307208F8202118BE582FFC439
:2011CB00540FF582C0071211AED007740F5FF5820211AE858211855812855913855A148531
:2011EB005B15AA5C751620EA2AFAE515235401FF8A064EFAE5122512F512E51333F513E51F
:20120B001433F514E51533F515C3EA95114008EAC39511FA431201E51614FF8F1670C8858E
:20122B00125885135985145A85155B8A5C22858253858354855F55856056856157E4F55DBB
:20124B00F55EAD62AE63AF648D828E838FF0121775FC74012DF562E43EF5638F64ECFF7003
:20126B000302173CBF25028003021734C201C202C203C204C205C206C207C20875660075D1
:20128B0067007CFFAA62AB63AE648A828B838EF0121775FFA3AA82AB838A628B638E64BF78
:2012AB0025078F8212118B80998F6974D025695026E56924C64020BCFF12E56775F00AA41B
:2012CB00FD2F24D0F56770C2D20280BEEC75F00AA42F24D0FC80B3BF2E07BCFFAD7C00809A
:2012EB00A98F05BD6100400CED248540075307DFD2008002C200BF2002806DBF2B02806373
:20130B00BF2D028059BF42028063BF43028068BF44030214DEBF46030214F4BF48030212FF
:20132B0095BF49030214DEBF4A03021295BF4C028040BF4F030214E5BF5003021473BF53D3
:20134B0002805CBF5403021295BF55030214EABF58030214EFBF5A030212950214F8D20109
:20136B00021295D203021295D204021295D206021295D20702129530060CE56514FE8E6528
:20138B008E0187078011E56524FEFE8E658E018705098706198D078F8212118B021501E51D
:2013AB006524FDFE8E658E01870309870509870619198B588D598E5A8B828D838EF0C00425
:2013CB0012175DAD82AE83D004BCFF028D0420012AC3ED95675024E567C39DF567AE678EE4
:2013EB00031EEB6014758220C006C005C00412118BD004D005D00680E68E678C0685588283
:20140B00855983855AF0121775FCFF602F8E041EC374808CF063F08095F050208F82C006E7
:20142B00C00512118BD005D006AA58AB59AC5A0ABA00010B8A588B598C5A80C12001030294
:20144B001501C3ED95674003021501E567C39DF567AE678E041EEC70030214FF758220C04C
:20146B000612118BD00680EBE56524FDFC8C658C01870209870309870419198A588B598C53
:20148B005AAC5ABC800040047F438014BC600040047F50800BBC400040047F4980027F58F0
:2014AB008F82C00712118B75823A12118B75823012118B75827812118BD007BF4902800B5E
:2014CB00BF500280068559821211C78558821211C78023D20575660A801C756608801775ED
:2014EB00660A8012756610800DD20880098F8212118B80028E6730085CE56524FCFE8E65DF
:20150B008E0187020987030987040987061919198A588B598C5A8E5B7558FC75591A755A8B
:20152B008085586A85596B855A6C7401256AFAE4356BFCAE6C8A588C598E5A856A82856B9D
:20154B0083856CF0121775FEFF700302124D8F8212118B80CCE566700302124D75681C305A
:20156B00062DE56514FC8C658C01E7FA3395E0FBFCFE8A588B598C5A8E5B200566AA587B3A
:20158B00007C007E008A588B598C5A8E5B8054300721E56524FCFE8E658E0187020987037F
:2015AB000987040987061919198A588B598C5A8E5B8030E56524FEFE8E658E01870409875F
:2015CB000619EE3395E0FBFA8C588E598B5A8A5B200510AA58AB597C007E008A588B598C3A
:2015EB005A8E5B300522E55B30E71BC3E49558FAE49559FBE4955AFCE4955BFE8A588B5912
:20160B008C5A8E5B8002C205D209A9687E00755C00856682C006C0011211DED001D00620B0
:20162B00090BE55CC4FCE7FB4CF7198002A75C0EB209E5584559455A455B70D289688E051E
:20164B00E5677003756701200224200121ED04FEAC67C3EE9C5015758220C006C005C00441
:20166B0012118BD004D005D0061C80E68C6730050E75822DC00512118BD00515678023ED02
:20168B00602030030E75822BC00512118BD0051567800F30040C758220C00512118BD0056A
:2016AB001567200122AE678E041EC3ED9C502B3002047C3080027C208C82C006C005121118
:2016CB008BD005D00680E0C3ED95675008E567C39DF567800775670080028E67A9688D06DF
:2016EB008E051EED6026B20920090A09E7C4540FFD8D5C80078705740F5DF55C855C82C069
:20170B0006C0011211AED001D00680D420010302124DAE678E051EED700302124D75822008
:18172B00C00612118BD00680EB8F8212118B02124D855D82855E8322E5
:0B1AFC003C4E4F20464C4F41543E0032
:1A174300E582C583F582A2D133A2D592D11392D5ECCFFCEBCEFBEACDFA222E
:18175D00AA82AB831217756003A380F8C3E5829AF582E5839BF5832226
:0D00510075816C1217F2E582600302004E0B
:1C17750020F71430F6148883A88220F507E6A88375830022E280F7E49322E02283
:0B179100E4AC82FBFAF974860217A595
:13179C00FCABF0AA83A982749EC2D1F582120F180210EFF5
:2017AF006040F82582500274FFF582E824F8501ECCCBCAF9E4CC24F85014CBCAF9E4CB2442
:2017CF00F8500BCAF9E4CA24F8500379002224086010F8C3EC13FCEB13FBEA13FAE913F9F5
:0317EF00D8F1220C
:0417F20075820022DA
:2017F6007F9E12181D30D103021110C3EF9582500974FFF5F0F583F5822279001217AF89E3
:07181600828A838BF0EC22B3
:12181D00AA82AB83A2F73392D1F5826002D2F7ACF022D0
:00000001FF
