:040000000200513277
:01000B0032C2
:0100130032BA
:01001B0032B2
:0100230032AA
:01002B0032A2
:01003300329A
:01003B003292
:01004300328A
:03004B0002084761
:2000AA00753300753400E4F535F536F537F538753901753A01F53BF53C753DC07540E07517
:0500CA0043E002004EBE
:03004E000205BBED
:2000CF0075B1677E007F01EE24FFFCEF34FFFD8C068D07EC4D70F0E5B130E7FB75B2882222
:2000EF00759850758920758DDCD28E438E10438780D29943A4012275FFDE75FFAD1200CF44
:20010F001200EF43E10443E34022AF8210990280FB8F992210980280FB8599821201198508
:20012F009982222098057582FF800BC29885998212011985998222C00F85810FE50F24FB56
:20014F00F886820886830886F0120FFFE5828583F045F07002805EE50F24FBFF8F0BE50F5D
:20016F0024FBF8860808860908860A90000175F00012096F90000175F000120FFFAE827F57
:20018F0000C3EF9E501BEF2401FCE43400FD8C828D83E0FBBB0A078C828D83740DF00F808D
:2001AF00E0752901752A00752B007528008E2C7582C6120459D00F2275220074C02522409C
:2001CF0017752E22752F00753040752D007531017582C61204CE80E375230C752923752A5A
:2001EF0000752B40752800752C017582C612045922752E26752F00753040752D01753102E6
:20020F007582C61204CEAF26BFFF0575820080607E008E258525F005F07B017C008006EB96
:20022F002BFBEC33FCD5F0F78F027D00EA5203ED5204EB4C600774312EF58280330525AEAF
:20024F002574F8252550CDE527FF30E005758239801EEF30E10575822A8015EF30E2057573
:20026F008230800CEF30E30575822380037582FF22AF82E4FDFEEF701DC006C0057437C0F3
:20028F00E07410C0E07480C0E0120146158115811581D005D006C006C0057408C0E0E4C0A6
:2002AF00E07408C0E0E4C0E07408C0E0E4C0E07408C0E0E4C0E07408C0E0E4C0E0744DC04E
:2002CF00E07410C0E07480C0E0120146E58124F3F58190A12075F007E41203F4D005D006D6
:2002EF007F00C007C006C005120200AC82D005D006D0078C03BCFF028003BB2A17902710C8
:20030F00E4F5F0C007C006C0051203F4D005D006D00780CEBB232AC006C005120200AC8205
:20032F00D005D006BC2313902710E4F5F0C006C0051203F4D005D00680DD8D828E830203C0
:20034F00F3EBFA3395E0FCC007C006C005C004C003C002C002C004745DC0E07410C0E074E8
:20036F0080C0E0120146E58124FBF581D002D003D004D005D0068D118E1290000AC004C07A
:20038F0003C0021208E2A882A983D002D003D004D007EA28F8EC39F9E824D0FDE934FFFECC
:2003AF00C007C006C005C003120200AC82D003D005D006D007ECB5031B902710E4F5F0C073
:2003CF0007C006C005C0031203F4D003D005D006D00780CC0FC3EF6480948550030202F109
:2003EF008D828E8322AC82AD83AEF0FF780079007A007B00C3E89CE99DEA9EEB9F500F0885
:20040F00B8000909B900050ABA00E90B80E62220C7FDD2C530C3FDC2C5C2C3228582C21093
:20042F00C30280FB228582C2D2C410C30280FB2230C3FD85C282C2C32230C3FDAFC2C2C334
:20044F00D2C410C30280FB8F8222AF82C00712041ED00774FE5FF58212042B8528821204A3
:20046F002B7F00AD2C7E00ED24FFFBEE34FFFC8F017A00C3E99BEA64808CF063F08095F051
:20048F00501FEF2529FAE4352AFBAC2B8A828B838CF0121017F582C00712042BD0070F80DE
:2004AF00C21DBDFF011EED2529FDEE352AFEAF2B8D828E838FF0121017F58212043422AFAC
:2004CF0082C00712041ED0078F0674FE5EF582C00712042B852D8212043412041ED00774D8
:2004EF00014FF58212042B7F00AD317E00ED24FFFBEE34FFFC8F017A00C3E99BEA64808C37
:20050F00F063F08095F0502ED2C2EF252EFAE4352FFBAC30C007C004C003C00212043FA909
:20052F0082D002D003D004D0078A828B838CF0E91208C70F80B3C2C21DBDFF011EED252E7C
:20054F00FDEE352FFEAF30C007C006C005120448AC82D005D006D0078D828E838FF0EC1263
:20056F0008C722753223752932752A00752B40752820752C01758230120459753200752928
:20058F0032752A00752B40752821752C01758230120459753200752932752A00752B40753A
:2005AF002822752C017582301204592212010675822012011912088F12089A12088012081B
:2005CF007A7460C0E07410C0E07480C0E0120A1E158115811581E539600C7539001207E039
:2005EF00858237858338E53A6017753A0012080885823585833612082E053BE4B53B02052A
:20060F003C7403B53B06E4B53C02800280C812062380C322C037C0387493C0E07410C0E027
:20062F007480C0E0120A1EE58124FBF581C3E53794E1E5389400400DE537942FE538940DF3
:20064F00E433FF701874A2C0E07410C0E07480C0E0120A1E15811581158102079BC3E53700
:20066F0094E1E53894004022E53794A3E5389402501874A4C0E07410C0E07480C0E0120AE9
:20068F001E15811581158102079BC3E53794A3E53894024022E5379465E5389404501874F6
:2006AF00A7C0E07410C0E07480C0E0120A1E15811581158102079BC3E5379465E5389404FF
:2006CF004022E5379427E5389406501874A9C0E07410C0E07480C0E0120A1E1581158115C3
:2006EF008102079BC3E5379427E53894064022E53794E9E5389407501874ACC0E07410C056
:20070F00E07480C0E0120A1E15811581158102079BC3E53794E9E53894074021E53794ABE6
:20072F00E5389409501774AEC0E07410C0E07480C0E0120A1E158115811581804FC3E53765
:20074F0094ABE53894094021E537946DE538940B501774B1C0E07410C0E07480C0E0120A57
:20076F001E1581158115818023C3E537946DE538940B4018EF601574B3C0E07410C0E07430
:20078F0080C0E0120A1E158115811581853582E536C58225E0C58233C58225E0C58233F556
:2007AF008375110A75120012089EAE82AF83C006C007C035C03674B6C0E07410C0E074801C
:2007CF00C0E0120A1EE58124F9F581E4F53BF53C22752E3E752F00753040752D027531021A
:2007EF00853D821204CEAF3E7E00AC3F7D00EC4206ED42078E828F8322752E41752F007544
:20080F003040752D027531028540821204CEAF417E00AC427D00EC4EF582ED4FF58322750D
:20082F004451752944752A00752B40752800752C0185438212045922C0E0C0D030DF240531
:20084F0033053474FE2533500675390175330074FC25345006753A01753400C2DF75E9002F
:20086F0075F97053D8C0D0D0D0E03275CF93D2C62275D98175DAC243D84043E608D2AF227E
:0F088F0053A4C0AF80743F4FF5802275E127223C
:201037000A54797065206469676974733B20656E6420772F230020202020202563256325F9
:201057006325632563002563000D0A0A0A0A456D62656464656420436F6E74726F6C2045D9
:201077006C65637472696320436F6D7061737320616E642052616E6765720A000D0A4865DD
:201097006164696E673A20256420004E004E45004500534500530053570057004E5700205C
:2010B7002052616E67653A20256420636D3B20726F7567687920256420696E6368657300FD
:20089E007A10E4FBFCE58225E0F582E58333F583EB33FBEC33FCEB9511F5F0EC951240065C
:0908BE00FCABF0438201DADD22FB
:06008000E478FFF6D8FD54
:20005E007900E94400601B7A009010E2785175AF00E493F2A308B8000205AFD9F4DAF275E8
:02007E00AFFFD2
:1B08C70020F71130F6138883A88220F509F6A8837583002280FEF280F5F02230
:1D08E200E5828511F0A4C582C0F08512F0A4D0F025F0C5838511F0A42583F58322BD
:2008FF00C00F85810FC082058105810581E50F24FBF8A90F0909E6F70809E6F70809E6F793
:20091F00A80F080886820886830886F0121017FAA3121017FBA3121017FF74012AFCE43BBB
:20093F00FD8F06A80F080886820886830886F0EC1208C7A3ED1208C7A3EE1208C78A828B61
:20095F00838FF0A80F08E61208C7850F81D00F2285820C85830D85F00E75510C7552007521
:20097F005340850854850955850A56850B579008FF120AF5AE82AF83AB0CAC0DAD0E8B82F3
:20099F008C838DF0E41208C78E828F8322C00F85810FE50F24F8FF8F57E50F24FBFF8F51D8
:2009BF00755200755340E50F24F8F886540886550886569008FF120AF5AE82AF83E50F247E
:1B09DF00FBF886030886040886058B828C838DF0E41208C78E828F83D00F22DB
:200086007800E84400600A790175AF00E4F309D8FC7850E84400600C7901900001E4F0A318
:0400A600D8FCD9FAAF
:2009FA00C00F85810F120119D00F2285825485835585F056E4F551F552F55385105790090B
:200A1A00FA020AF5C00F85810FE50F24FBFF8F57E4F551F552F553E50F24FBF886540886B9
:0D0A3A00550886569009FA120AF5D00F22D1
:200A4700AF82C047C048C049120A548007C045C0468F8222158115811581054FE4B54F0211
:200A6700055022AF8274302FFF24C6500A74072FFF3000034307208F82020A47E582FFC4DD
:200A8700540FF582C007120A6AD007740F5FF582020A6A858211854A12854B13854C14853C
:200AA7004D15AA4E751620EA2AFAE515235401FF8A064EFAE5122512F512E51333F513E586
:200AC7001433F514E51533F515C3EA95114008EAC39511FA431201E51614FF8F1670C885DA
:200AE700124A85134B85144C85154D8A4E22858245858346855147855248855349E4F54FCB
:200B0700F550AD54AE55AF568D828E838FF0121017FC74012DF554E43EF5558F56ECFF7015
:200B270003020FF8BF25028003020FF0C201C202C203C204C205C206C207C20875580075C2
:200B470059007CFFAA54AB55AE568A828B838EF0121017FFA3AA82AB838A548B558E56BF8A
:200B670025078F82120A4780998F5B74D0255B5026E55B24C64020BCFF12E55975F00AA4E9
:200B8700FD2F24D0F55970C2D20280BEEC75F00AA42F24D0FC80B3BF2E07BCFFAD7C0080F3
:200BA700A98F05BD6100400CED248540075307DFD2008002C200BF2002806DBF2B028063BE
:200BC700BF2D028059BF42028063BF43028068BF4403020D9ABF4603020DB0BF4803020BE8
:200BE70051BF4903020D9ABF4A03020B51BF4C028040BF4F03020DA1BF5003020D2FBF538F
:200C070002805CBF5403020B51BF5503020DA6BF5803020DABBF5A03020B51020DB4D201CB
:200C2700020B51D203020B51D204020B51D206020B51D207020B5130060CE55714FE8E5706
:200C47008E0187078011E55724FEFE8E578E018705098706198D078F82120A47020DBDE51B
:200C67005724FDFE8E578E01870309870509870619198B4A8D4B8E4C8B828D838EF0C004B6
:200C8700120FFFAD82AE83D004BCFF028D0420012AC3ED95595024E559C39DF559AE598ECD
:200CA700031EEB6014758220C006C005C004120A47D004D005D00680E68E598C06854A8235
:200CC700854B83854CF0121017FCFF602F8E041EC374808CF063F08095F050208F82C006B4
:200CE700C005120A47D005D006AA4AAB4BAC4C0ABA00010B8A4A8B4B8C4C80C1200103027F
:200D07000DBDC3ED95594003020DBDE559C39DF559AE598E041EEC7003020DBB758220C0B2
:200D270006120A47D00680EBE55724FDFC8C578C01870209870309870419198A4A8B4B8C21
:200D47004CAC4CBC800040047F438014BC600040047F50800BBC400040047F4980027F5857
:200D67008F82C007120A4775823A120A47758230120A47758278120A47D007BF4902800BD5
:200D8700BF50028006854B82120A83854A82120A838023D20575580A801C75580880177506
:200DA700580A8012755810800DD20880098F82120A4780028E5930085CE55724FCFE8E57BB
:200DC7008E0187020987030987040987061919198A4A8B4B8C4C8E4D754AD7754B10754C68
:200DE70080854A5C854B5D854C5E7401255CFAE4355DFCAE5E8A4A8C4B8E4C855C82855DAD
:200E070083855EF0121017FEFF7003020B098F82120A4780CCE5587003020B09755A1C3015
:200E2700062DE55714FC8C578C01E7FA3395E0FBFCFE8A4A8B4B8C4C8E4D200566AA4A7BE7
:200E4700007C007E008A4A8B4B8C4C8E4D8054300721E55724FCFE8E578E0187020987031E
:200E67000987040987061919198A4A8B4B8C4C8E4D8030E55724FEFE8E578E0187040987FE
:200E87000619EE3395E0FBFA8C4A8E4B8B4C8A4D200510AA4AAB4B7C007E008A4A8B4B8CF5
:200EA7004C8E4D300522E54D30E71BC3E4954AFAE4954BFBE4954CFCE4954DFE8A4A8B4BDB
:200EC7008C4C8E4D8002C205D209A95A7E00754E00855882C006C001120A9AD001D006208D
:200EE700090BE54EC4FCE7FB4CF7198002A74E0EB209E54A454B454C454D70D2895A8E05CC
:200F0700E5597003755901200224200121ED04FEAC59C3EE9C5015758220C006C005C004B6
:200F2700120A47D004D005D0061C80E68C5930050E75822DC005120A47D00515598023EDFF
:200F4700602030030E75822BC005120A47D0051559800F30040C758220C005120A47D00559
:200F67001559200122AE598E041EC3ED9C502B3002047C3080027C208C82C006C005120A86
:200F870047D005D00680E0C3ED95595008E559C39DF559800775590080028E59A95A8D06C2
:200FA7008E051EED6026B20920090A09E7C4540FFD8D4E80078705740F5DF54E854E82C0DE
:200FC70006C001120A6AD001D00680D4200103020B09AE598E051EED7003020B0975822043
:180FE700C006120A47D00680EB8F82120A47020B09854F82855083222E
:0B10D7003C4E4F20464C4F41543E0061
:180FFF00AA82AB831210176003A380F8C3E5829AF582E5839BF58322F1
:0D00510075815E121033E582600302004EDF
:1C10170020F71430F6148883A88220F507E6A88375830022E280F7E49322E022E8
:0410330075820022A0
:00000001FF
