:040000000200513277
:01000B0032C2
:0100130032BA
:01001B0032B2
:0100230032AA
:01002B0032A2
:01003300329A
:01003B003292
:01004300328A
:03004B000209099E
:0300AA0002004E03
:03004E000205990F
:2000AD0075B1677E007F01EE24FFFCEF34FFFD8C068D07EC4D70F0E5B130E7FB75B2882244
:2000CD00759850758920758DDCD28E438E10438780D29943A4012275FFDE75FFAD1200AD88
:2000ED001200CD43E10443E34022AF8210990280FB8F992210980280FB8599821200F78570
:20010D009982222098057582FF800BC2988599821200F785998222C01F85811FE51F24FB6B
:20012D00F886820886830886F01210A3E5828583F045F07002805EE51F24FBFF8F25E51FA0
:20014D0024FBF8862208862308862490000175F000120A1390000175F0001210A3AE827FE1
:20016D0000C3EF9E501BEF2401FCE43400FD8C828D83E0FBBB0A078C828D83740DF00F80AF
:20018D00E0750F01751000751100750E008E127582C6120437D01F2275080074C025084086
:2001AD00177514087515007516407513007517017582C61204AC80E375090C750F097510A2
:2001CD0000751140750E007512017582C61204372275140C75150075164075130175170214
:2001ED007582C61204ACAF0CBFFF0575820080607E008E0B850BF005F07B017C008006EB29
:20020D002BFBEC33FCD5F0F78F027D00EA5203ED5204EB4C600774312EF5828033050BAEEB
:20022D000B74F8250B50CDE50DFF30E005758239801EEF30E10575822A8015EF30E20575E3
:20024D008230800CEF30E30575822380037582FF22AF82E4FDFEEF701DC006C00574DBC071
:20026D00E07410C0E07480C0E0120124158115811581D005D006C006C0057408C0E0E4C0EA
:20028D00E07408C0E0E4C0E07408C0E0E4C0E07408C0E0E4C0E07408C0E0E4C0E074F1C0CC
:2002AD00E07410C0E07480C0E0120124E58124F3F58190A12075F007E41203D2D005D0063C
:2002CD007F00C007C006C0051201DEAC82D005D006D0078C03BCFF028003BB2A179027100D
:2002ED00E4F5F0C007C006C0051203D2D005D006D00780CEBB232AC006C0051201DEAC826D
:20030D00D005D006BC2313902710E4F5F0C006C0051203D2D005D00680DD8D828E83020304
:20032D00D1EBFA3395E0FCC007C006C005C004C003C002C002C0047401C0E07411C0E07487
:20034D0080C0E0120124E58124FBF581D002D003D004D005D0068D448E4590000AC004C058
:20036D0003C002120986A882A983D002D003D004D007EA28F8EC39F9E824D0FDE934FFFE49
:20038D00C007C006C005C0031201DEAC82D003D005D006D007ECB5031B902710E4F5F0C0B8
:2003AD0007C006C005C0031203D2D003D005D006D00780CC0FC3EF6480948550030202CF6F
:2003CD008D828E8322AC82AD83AEF0FF780079007A007B00C3E89CE99DEA9EEB9F500F08A7
:2003ED00B8000909B900050ABA00E90B80E62220C7FDD2C530C3FDC2C5C2C3228582C210B6
:20040D00C30280FB228582C2D2C410C30280FB2230C3FD85C282C2C32230C3FDAFC2C2C356
:20042D00D2C410C30280FB8F8222AF82C0071203FCD00774FE5FF582120409850E82120424
:20044D00097F00AD127E00ED24FFFBEE34FFFC8F017A00C3E99BEA64808CF063F08095F0AF
:20046D00501FEF250FFAE43510FBAC118A828B838CF01210BBF582C007120409D0070F80CC
:20048D00C21DBDFF011EED250FFDEE3510FEAF118D828E838FF01210BBF58212041222AF9A
:2004AD0082C0071203FCD0078F0674FE5EF582C0071204098513821204121203FCD007749E
:2004CD00014FF5821204097F00AD177E00ED24FFFBEE34FFFC8F017A00C3E99BEA64808C95
:2004ED00F063F08095F0502ED2C2EF2514FAE43515FBAC16C007C004C003C00212041DA99C
:20050D0082D002D003D004D0078A828B838CF0E912096B0F80B3C2C21DBDFF011EED251413
:20052D00FDEE3515FEAF16C007C006C005120426AC82D005D006D0078D828E838FF0EC12DB
:20054D00096B22751823750F18751000751140750E20751201758230120437751800750FB1
:20056D0018751000751140750E21751201758230120437751800750F187510007511407582
:20058D000E22751201758230120437221200E412095112095512095E12096575820D12001F
:2005AD00F77404C0E07411C0E07480C0E0120AC2158115811581E4F519F51AC3E51994016F
:2005CD00E51A940040F5740DC0E07411C0E07480C0E0120AC21581158115811201A5741B85
:2005ED00C0E07411C0E07480C0E0120AC21581158115817438C0E07411C0E07480C0E012DE
:20060D0001241581158115811208F81201A512062180FB221201DEAF82C0071208E7D00785
:20062D00BFFF02806EC0071201A5D007EFFD3395E0FEC007C006C005C005C006C005C006AF
:20064D007472C0E07411C0E07480C0E0120124E58124F9F5811208E7D005D006C005C006E7
:20066D00C005C006748FC0E07411C0E07480C0E0120AC2E58124F9F581D007EF701574AD43
:20068D00C0E07411C0E07480C0E0120AC21581158115812275820012025EAE82C0061208B9
:2006AD00E7D006BEFF028072C0061201A5D006EEFD3395E0FFC007C006C005C005C007C03B
:2006CD0005C00774D2C0E07411C0E07480C0E0120124E58124F9F5811208E7D005D006D0F6
:2006ED0007C006C005C007C005C007748FC0E07411C0E07480C0E0120AC2E58124F9F581D5
:20070D00D006EE701574ADC0E07411C0E07480C0E0120AC21581158115812275820112023B
:20072D005EAE82C0061208E7D006BEFF028072C0061201A51208E7D006EEFD3395E0FFC029
:20074D0007C006C005C005C007C005C00774D2C0E07411C0E07480C0E0120124E58124F989
:20076D00F581D005D006D007C006C005C007C005C007748FC0E07411C0E07480C0E0120A1E
:20078D00C2E58124F9F581D006EE701574ADC0E07411C0E07480C0E0120AC21581158115AF
:2007AD008122120838AF82C007120838AE82D007EF75F00AA42EFDEE3395E0FCEF3395E090
:2007CD00FBC005C006C004C007C00374F0C0E07411C0E07480C0E0120AC2E58124F9F581A4
:2007ED00D005ED3395E0FFC007C005C005C007741CC0E07412C0E07480C0E0120AC2E5813D
:20080D0024FBF581D005D007C005C007741CC0E07412C0E07480C0E0120124E58124FBF563
:20082D00811208F81208F81201A5227F00C0071201DEAE82C0061208E7D006D007E4BEFFB0
:20084D000104FD600BC0071201DEAE82D00780EDED7071C0061201A5D006EEFC3395E0FD41
:20086D00C006C005C004C004C005C004C005742BC0E07412C0E07480C0E0120124E5812450
:20088D00F9F581D004D005C004C005C004C0057441C0E07412C0E07480C0E0120AC2E581CE
:2008AD0024F9F581D006EE7019C006745FC0E07412C0E07480C0E0120AC2158115811581B8
:2008CD00D0068E07BEFF02800BC0071201DEAE82D00780F0EF24D0F58222E4F51BF51CC3E3
:2008ED00E51B9401E51C940040F522E4F51BF51CC3E51B9432E51C940040F522C0E0C0D0C0
:20090D0010DF0280377401251DF51DE4351EF51E7401251BF51BE4351CF51C75E90075F938
:20092D0070C37432951BE4951C5014E4F51BF51C042519F519E4351AF51A800353D8C0D053
:1E094D00D0D0E03275E1272243A80243E608D2AF2275D98143D8402275CF93D2C6229D
:2010DB000A54797065206469676974733B20656E6420772F23002020202020256325632555
:2010FB006325632563002563000A53746172740D0A000D636C656172206572726F720A0043
:20111B000D696620796F7520736565207468697320636F646520776F726B730A0043616CFB
:20113B006962726174696F6E3A0A48656C6C6F20776F726C64210A5068696C697020486F54
:20115B006464696E6F747477726F7465207468697320636F646500596F7572206B65792082
:20117B007761733A0A2025632C20203D20486578202558000A0D596F7572206B65792077CC
:20119B0061733A2025632C20203D20486578202558002020202A2A5769726520436F6E6EFA
:2011BB00656374696F6E2F58425230204572726F722A2A20202000596F7572206B65792031
:2011DB007761733A0A2025632C20203D204865782025580A000D4669727374206E756D6241
:2011FB006572207761732025752C207365636F6E64206E756D626572207761732025750A38
:20121B00000D526573756C742069732025750A004B6579207761733A0A2025632C3D204816
:20123B00782025580A000D596F7572206B6579207761733A2025632C20203D2048657820F4
:20125B0025580A002020202A2A5769726520436F6E6E656374696F6E204572726F722A2AF3
:04127B00202020000F
:06008000E478FFF6D8FD54
:20005E007900E94400601B7A0090128A785175AF00E493F2A308B8000205AFD9F4DAF2753E
:02007E00AFFFD2
:1B096B0020F71130F6138883A88220F509F6A8837583002280FEF280F5F0228B
:1D098600E5828544F0A4C582C0F08545F0A4D0F025F0C5838544F0A42583F583227F
:2009A300C01F85811FC082058105810581E51F24FBF8A91F0909E6F70809E6F70809E6F7AE
:2009C300A81F080886820886830886F01210BBFAA31210BBFBA31210BBFF74012AFCE43B1B
:2009E300FD8F06A81F080886820886830886F0EC12096BA3ED12096BA3EE12096B8A828BBE
:200A0300838FF0A81F08E612096B851F81D01F2285822685832785F0287536267537007575
:200A2300384085223985233A85243B85253C9009A3120B99AE82AF83AB26AC27AD288B82D5
:200A43008C838DF0E412096B8E828F8322C01F85811FE51F24F8FF8F3CE51F24FBFF8F3684
:200A6300753700753840E51F24F8F8863908863A08863B9009A3120B99AE82AF83E51F24F6
:1B0A8300FBF886030886040886058B828C838DF0E412096B8E828F83D01F2281
:200086007800E84400600A790175AF00E4F309D8FC7850E84400600C7901900001E4F0A318
:0400A600D8FCD9FAAF
:200A9E00C01F85811F1200F7D01F2285823985833A85F03BE4F536F537F53885293C900AFC
:200ABE009E020B99C01F85811FE51F24FBFF8F3CE4F536F537F538E51F24FBF88639088613
:0D0ADE003A08863B900A9E120B99D01F2209
:200AEB00AF82C02CC02DC02E120AF88007C02AC02B8F82221581158115810534E4B5340286
:200B0B00053522AF8274302FFF24C6500A74072FFF3000034307208F82020AEBE582FFC4AF
:200B2B00540FF582C007120B0ED007740F5FF582020B0E858244852F4585304685314785D2
:200B4B003248AA33754920EA2AFAE548235401FF8A064EFAE5452545F545E54633F546E57F
:200B6B004733F547E54833F548C3EA95444008EAC39544FA434501E54914FF8F4970C8856A
:200B8B00452F8546308547318548328A332285822A85832B85362C85372D85382EE4F534D4
:200BAB00F535AD39AE3AAF3B8D828E838FF01210BBFC74012DF539E43EF53A8F3BECFF708A
:200BCB000302109CBF25028003021094C201C202C203C204C205C206C207C208753D0075EF
:200BEB003E007CFFAA39AB3AAE3B8A828B838EF01210BBFFA3AA82AB838A398B3A8E3BBFFF
:200C0B0025078F82120AEB80998F4074D025405026E54024C64020BCFF12E53E75F00AA40C
:200C2B00FD2F24D0F53E70C2D20280BEEC75F00AA42F24D0FC80B3BF2E07BCFFAD7C008069
:200C4B00A98F05BD6100400CED248540075307DFD2008002C200BF2002806DBF2B02806319
:200C6B00BF2D028059BF42028063BF43028068BF4403020E3EBF4603020E54BF4803020BF9
:200C8B00F5BF4903020E3EBF4A03020BF5BF4C028040BF4F03020E45BF5003020DD3BF53B4
:200CAB0002805CBF5403020BF5BF5503020E4ABF5803020E4FBF5A03020BF5020E58D201F0
:200CCB00020BF5D203020BF5D204020BF5D206020BF5D207020BF530060CE53C14FE8E3C64
:200CEB008E0187078011E53C24FEFE8E3C8E018705098706198D078F82120AEB020E61E564
:200D0B003C24FDFE8E3C8E01870309870509870619198B2F8D308E318B828D838EF0C00498
:200D2B001210A3AD82AE83D004BCFF028D0420012AC3ED953E5024E53EC39DF53EAE3E8EEF
:200D4B00031EEB6014758220C006C005C004120AEBD004D005D00680E68E3E8C06852F8222
:200D6B008530838531F01210BBFCFF602F8E041EC374808CF063F08095F050208F82C006A1
:200D8B00C005120AEBD005D006AA2FAB30AC310ABA00010B8A2F8B308C3180C120010302D8
:200DAB000E61C3ED953E4003020E61E53EC39DF53EAE3E8E041EEC7003020E5F758220C08B
:200DCB0006120AEBD00680EBE53C24FDFC8C3C8C01870209870309870419198A2F8B308C45
:200DEB0031AC31BC800040047F438014BC600040047F50800BBC400040047F4980027F58E9
:200E0B008F82C007120AEB75823A120AEB758230120AEB758278120AEBD007BF4902800BA0
:200E2B00BF50028006853082120B27852F82120B278023D205753D0A801C753D0880177583
:200E4B003D0A8012753D10800DD20880098F82120AEB80028E3E30085CE53C24FCFE8E3CF9
:200E6B008E0187020987030987040987061919198A2F8B308C318E32752F7F7530127531D6
:200E8B0080852F4185304285314374012541FAE43542FCAE438A2F8C308E31854182854282
:200EAB00838543F01210BBFEFF7003020BAD8F82120AEB80CCE53D7003020BAD753F4F30FF
:200ECB00062DE53C14FC8C3C8C01E7FA3395E0FBFCFE8A2F8B308C318E32200566AA2F7B00
:200EEB00007C007E008A2F8B308C318E328054300721E53C24FCFE8E3C8E0187020987031C
:200F0B000987040987061919198A2F8B308C318E328030E53C24FEFE8E3C8E0187040987FB
:200F2B000619EE3395E0FBFA8C2F8E308B318A32200510AA2FAB307C007E008A2F8B308C28
:200F4B00318E32300522E53230E71BC3E4952FFAE49530FBE49531FCE49532FE8A2F8B3029
:200F6B008C318E328002C205D209A93F7E00753300853D82C006C001120B3ED001D00620CA
:200F8B00090BE533C4FCE7FB4CF7198002A7330EB209E52F45304531453270D2893F8E05E4
:200FAB00E53E7003753E01200224200121ED04FEAC3EC3EE9C5015758220C006C005C00463
:200FCB00120AEBD004D005D0061C80E68C3E30050E75822DC005120AEBD005153E8023ED49
:200FEB00602030030E75822BC005120AEBD005153E800F30040C758220C005120AEBD00588
:20100B00153E200122AE3E8E041EC3ED9C502B3002047C3080027C208C82C006C005120A17
:20102B00EBD005D00680E0C3ED953E5008E53EC39DF53E8007753E0080028E3EA93F8D061B
:20104B008E051EED6026B20920090A09E7C4540FFD8D3380078705740F5DF533853382C08A
:20106B0006C001120B0ED001D00680D4200103020BADAE3E8E051EED7003020BAD758220CC
:18108B00C006120AEBD00680EB8F82120AEB020BAD85348285358322D3
:0B127F003C4E4F20464C4F41543E00B7
:1810A300AA82AB831210BB6003A380F8C3E5829AF582E5839BF58322A8
:0D00510075814F1210D7E582600302004E4A
:1C10BB0020F71430F6148883A88220F507E6A88375830022E280F7E49322E02244
:0410D70075820022FC
:00000001FF
