:040000000200513277
:01000B0032C2
:0100130032BA
:01001B0032B2
:0100230032AA
:01002B0032A2
:01003300329A
:01003B003292
:01004300328A
:03004B000208FAAE
:0300AA0002004E03
:03004E000205990F
:2000AD0075B1677E007F01EE24FFFCEF34FFFD8C068D07EC4D70F0E5B130E7FB75B2882244
:2000CD00759850758920758DDCD28E438E10438780D29943A4012275FFDE75FFAD1200AD88
:2000ED001200CD43E10443E34022AF8210990280FB8F992210980280FB8599821200F78570
:20010D009982222098057582FF800BC2988599821200F785998222C01F85811FE51F24FB6B
:20012D00F886820886830886F0121094E5828583F045F07002805EE51F24FBFF8F25E51FAF
:20014D0024FBF8862208862308862490000175F000120A0490000175F000121094AE827FFF
:20016D0000C3EF9E501BEF2401FCE43400FD8C828D83E0FBBB0A078C828D83740DF00F80AF
:20018D00E0750F01751000751100750E008E127582C6120437D01F2275080074C025084086
:2001AD00177514087515007516407513007517017582C61204AC80E375090C750F097510A2
:2001CD0000751140750E007512017582C61204372275140C75150075164075130175170214
:2001ED007582C61204ACAF0CBFFF0575820080607E008E0B850BF005F07B017C008006EB29
:20020D002BFBEC33FCD5F0F78F027D00EA5203ED5204EB4C600774312EF5828033050BAEEB
:20022D000B74F8250B50CDE50DFF30E005758239801EEF30E10575822A8015EF30E20575E3
:20024D008230800CEF30E30575822380037582FF22AF82E4FDFEEF701DC006C00574CCC080
:20026D00E07410C0E07480C0E0120124158115811581D005D006C006C0057408C0E0E4C0EA
:20028D00E07408C0E0E4C0E07408C0E0E4C0E07408C0E0E4C0E07408C0E0E4C0E074E2C0DB
:2002AD00E07410C0E07480C0E0120124E58124F3F58190A12075F007E41203D2D005D0063C
:2002CD007F00C007C006C0051201DEAC82D005D006D0078C03BCFF028003BB2A179027100D
:2002ED00E4F5F0C007C006C0051203D2D005D006D00780CEBB232AC006C0051201DEAC826D
:20030D00D005D006BC2313902710E4F5F0C006C0051203D2D005D00680DD8D828E83020304
:20032D00D1EBFA3395E0FCC007C006C005C004C003C002C002C00474F2C0E07410C0E07497
:20034D0080C0E0120124E58124FBF581D002D003D004D005D0068D448E4590000AC004C058
:20036D0003C002120977A882A983D002D003D004D007EA28F8EC39F9E824D0FDE934FFFE58
:20038D00C007C006C005C0031201DEAC82D003D005D006D007ECB5031B902710E4F5F0C0B8
:2003AD0007C006C005C0031203D2D003D005D006D00780CC0FC3EF6480948550030202CF6F
:2003CD008D828E8322AC82AD83AEF0FF780079007A007B00C3E89CE99DEA9EEB9F500F08A7
:2003ED00B8000909B900050ABA00E90B80E62220C7FDD2C530C3FDC2C5C2C3228582C210B6
:20040D00C30280FB228582C2D2C410C30280FB2230C3FD85C282C2C32230C3FDAFC2C2C356
:20042D00D2C410C30280FB8F8222AF82C0071203FCD00774FE5FF582120409850E82120424
:20044D00097F00AD127E00ED24FFFBEE34FFFC8F017A00C3E99BEA64808CF063F08095F0AF
:20046D00501FEF250FFAE43510FBAC118A828B838CF01210ACF582C007120409D0070F80DB
:20048D00C21DBDFF011EED250FFDEE3510FEAF118D828E838FF01210ACF58212041222AFA9
:2004AD0082C0071203FCD0078F0674FE5EF582C0071204098513821204121203FCD007749E
:2004CD00014FF5821204097F00AD177E00ED24FFFBEE34FFFC8F017A00C3E99BEA64808C95
:2004ED00F063F08095F0502ED2C2EF2514FAE43515FBAC16C007C004C003C00212041DA99C
:20050D0082D002D003D004D0078A828B838CF0E912095C0F80B3C2C21DBDFF011EED251422
:20052D00FDEE3515FEAF16C007C006C005120426AC82D005D006D0078D828E838FF0EC12DB
:20054D00095C22751823750F18751000751140750E20751201758230120437751800750FC0
:20056D0018751000751140750E21751201758230120437751800750F187510007511407582
:20058D000E22751201758230120437221200E412094212094612094F12095675820D12005B
:2005AD00F774F5C0E07410C0E07480C0E0120AB3158115811581E4F519F51AC3E51994018E
:2005CD00E51A940040F574FEC0E07410C0E07480C0E0120AB31581158115811201A5740CB3
:2005ED00C0E07411C0E07480C0E0120AB31581158115817429C0E07411C0E07480C0E012FC
:20060D00012415811581158112069880FB221201DEAF82C0071208D8D007BFFF02806BC07C
:20062D00071201A5D007EFFD3395E0FEC007C006C005C005C006C005C0067463C0E0741121
:20064D00C0E07480C0E0120124E58124F9F581D005D006C005C006C005C0067480C0E07460
:20066D0011C0E07480C0E0120AB3E58124F9F581D007EF7015749EC0E07411C0E07480C08A
:20068D00E0120AB31581158115812275820012025EAE82C0061208D8D006BEFF02806FC025
:2006AD00061201A5D006EEFD3395E0FFC007C006C005C005C007C005C00774C3C0E0741141
:2006CD00C0E07480C0E0120124E58124F9F581D005D006D007C006C005C007C005C00774D5
:2006ED0080C0E07411C0E07480C0E0120AB3E58124F9F581D006EE7015749EC0E07411C00C
:20070D00E07480C0E0120AB31581158115812275820112025EAE82C0061208D8D006BEFFC0
:20072D0002806FC0061201A5D006EEFD3395E0FFC007C006C005C005C007C005C00774C334
:20074D00C0E07411C0E07480C0E0120124E58124F9F581D005D006D007C006C005C007C06F
:20076D0005C0077480C0E07411C0E07480C0E0120AB3E58124F9F581D006EE7015749EC070
:20078D00E07411C0E07480C0E0120AB315811581158122120829AF82C007120829AE82D082
:2007AD0007EF75F00AA42EFDEE3395E0FCEF3395E0FBC005C006C004C007C00374E1C0E006
:2007CD007411C0E07480C0E0120AB3E58124F9F581D005ED3395E0FFC007C005C005C0070A
:2007ED00740DC0E07412C0E07480C0E0120AB3E58124FBF581D005D007C005C007740DC0CE
:20080D00E07412C0E07480C0E0120124E58124FBF5811208E91208E91201A5227F00C007D9
:20082D001201DEAE82C0061208D8D006D007E4BEFF0104FD600BC0071201DEAE82D00780D8
:20084D00EDED7071C0061201A5D006EEFC3395E0FDC006C005C004C004C005C004C0057418
:20086D001CC0E07412C0E07480C0E0120124E58124F9F581D004D005C004C005C004C0050A
:20088D007432C0E07412C0E07480C0E0120AB3E58124F9F581D006EE7019C0067450C0E00C
:2008AD007412C0E07480C0E0120AB3158115811581D0068E07BEFF02800BC0071201DEAEC5
:2008CD0082D00780F0EF24D0F58222E4F51BF51CC3E51B9401E51C940040F522E4F51BF594
:2008ED001CC3E51B9432E51C940040F522C0E0C0D010DF0280377401251DF51DE4351EF58D
:20090D001E7401251BF51BE4351CF51C75E90075F970C37432951BE4951C5014E4F51BF56A
:20092D001C042519F519E4351AF51A800353D8C0D0D0D0E03275E1272243A80243E608D27D
:0F094D00AF2275D98143D8402275CF93D2C622ED
:2010CC000A54797065206469676974733B20656E6420772F23002020202020256325632564
:2010EC006325632563002563000A53746172740D0A000D636C656172206572726F720A0052
:20110C000D696620796F7520736565207468697320636F646520776F726B730A0043616C0A
:20112C006962726174696F6E3A0A48656C6C6F20776F726C64210A5068696C697020486F63
:20114C006464696E6F747477726F7465207468697320636F646500596F7572206B65792091
:20116C007761733A0A2025632C20203D20486578202558000A0D596F7572206B65792077DB
:20118C0061733A2025632C20203D20486578202558002020202A2A5769726520436F6E6E09
:2011AC00656374696F6E2F58425230204572726F722A2A20202000596F7572206B65792040
:2011CC007761733A0A2025632C20203D204865782025580A000D4669727374206E756D6250
:2011EC006572207761732025752C207365636F6E64206E756D626572207761732025750A47
:20120C00000D526573756C742069732025750A004B6579207761733A0A2025632C3D204825
:20122C00782025580A000D596F7572206B6579207761733A2025632C20203D204865782003
:20124C0025580A002020202A2A5769726520436F6E6E656374696F6E204572726F722A2A02
:04126C00202020001E
:06008000E478FFF6D8FD54
:20005E007900E94400601B7A0090127B785175AF00E493F2A308B8000205AFD9F4DAF2754D
:02007E00AFFFD2
:1B095C0020F71130F6138883A88220F509F6A8837583002280FEF280F5F0229A
:1D097700E5828544F0A4C582C0F08545F0A4D0F025F0C5838544F0A42583F583228E
:20099400C01F85811FC082058105810581E51F24FBF8A91F0909E6F70809E6F70809E6F7BD
:2009B400A81F080886820886830886F01210ACFAA31210ACFBA31210ACFF74012AFCE43B57
:2009D400FD8F06A81F080886820886830886F0EC12095CA3ED12095CA3EE12095C8A828BFA
:2009F400838FF0A81F08E612095C851F81D01F2285822685832785F0287536267537007594
:200A1400384085223985233A85243B85253C900994120B8AAE82AF83AB26AC27AD288B8202
:200A34008C838DF0E412095C8E828F8322C01F85811FE51F24F8FF8F3CE51F24FBFF8F36A2
:200A5400753700753840E51F24F8F8863908863A08863B900994120B8AAE82AF83E51F2423
:1B0A7400FBF886030886040886058B828C838DF0E412095C8E828F83D01F229F
:200086007800E84400600A790175AF00E4F309D8FC7850E84400600C7901900001E4F0A318
:0400A600D8FCD9FAAF
:200A8F00C01F85811F1200F7D01F2285823985833A85F03BE4F536F537F53885293C900A0B
:200AAF008F020B8AC01F85811FE51F24FBFF8F3CE4F536F537F538E51F24FBF88639088640
:0D0ACF003A08863B900A8F120B8AD01F2236
:200ADC00AF82C02CC02DC02E120AE98007C02AC02B8F82221581158115810534E4B53402A4
:200AFC00053522AF8274302FFF24C6500A74072FFF3000034307208F82020ADCE582FFC4CE
:200B1C00540FF582C007120AFFD007740F5FF582020AFF858244852F458530468531478501
:200B3C003248AA33754920EA2AFAE548235401FF8A064EFAE5452545F545E54633F546E58E
:200B5C004733F547E54833F548C3EA95444008EAC39544FA434501E54914FF8F4970C88579
:200B7C00452F8546308547318548328A332285822A85832B85362C85372D85382EE4F534E3
:200B9C00F535AD39AE3AAF3B8D828E838FF01210ACFC74012DF539E43EF53A8F3BECFF70A8
:200BBC000302108DBF25028003021085C201C202C203C204C205C206C207C208753D00751C
:200BDC003E007CFFAA39AB3AAE3B8A828B838EF01210ACFFA3AA82AB838A398B3A8E3BBF1D
:200BFC0025078F82120ADC80998F4074D025405026E54024C64020BCFF12E53E75F00AA42B
:200C1C00FD2F24D0F53E70C2D20280BEEC75F00AA42F24D0FC80B3BF2E07BCFFAD7C008078
:200C3C00A98F05BD6100400CED248540075307DFD2008002C200BF2002806DBF2B02806328
:200C5C00BF2D028059BF42028063BF43028068BF4403020E2FBF4603020E45BF4803020B26
:200C7C00E6BF4903020E2FBF4A03020BE6BF4C028040BF4F03020E36BF5003020DC4BF530E
:200C9C0002805CBF5403020BE6BF5503020E3BBF5803020E40BF5A03020BE6020E49D2014A
:200CBC00020BE6D203020BE6D204020BE6D206020BE6D207020BE630060CE53C14FE8E3CBE
:200CDC008E0187078011E53C24FEFE8E3C8E018705098706198D078F82120ADC020E52E591
:200CFC003C24FDFE8E3C8E01870309870509870619198B2F8D308E318B828D838EF0C004A8
:200D1C00121094AD82AE83D004BCFF028D0420012AC3ED953E5024E53EC39DF53EAE3E8E0D
:200D3C00031EEB6014758220C006C005C004120ADCD004D005D00680E68E3E8C06852F8240
:200D5C008530838531F01210ACFCFF602F8E041EC374808CF063F08095F050208F82C006BF
:200D7C00C005120ADCD005D006AA2FAB30AC310ABA00010B8A2F8B308C3180C120010302F6
:200D9C000E52C3ED953E4003020E52E53EC39DF53EAE3E8E041EEC7003020E50758220C0C7
:200DBC0006120ADCD00680EBE53C24FDFC8C3C8C01870209870309870419198A2F8B308C63
:200DDC0031AC31BC800040047F438014BC600040047F50800BBC400040047F4980027F58F8
:200DFC008F82C007120ADC75823A120ADC758230120ADC758278120ADCD007BF4902800BEC
:200E1C00BF50028006853082120B18852F82120B188023D205753D0A801C753D08801775B0
:200E3C003D0A8012753D10800DD20880098F82120ADC80028E3E30085CE53C24FCFE8E3C17
:200E5C008E0187020987030987040987061919198A2F8B308C318E32752F707530127531F4
:200E7C0080852F4185304285314374012541FAE43542FCAE438A2F8C308E31854182854291
:200E9C00838543F01210ACFEFF7003020B9E8F82120ADC80CCE53D7003020B9E753F4F304A
:200EBC00062DE53C14FC8C3C8C01E7FA3395E0FBFCFE8A2F8B308C318E32200566AA2F7B0F
:200EDC00007C007E008A2F8B308C318E328054300721E53C24FCFE8E3C8E0187020987032B
:200EFC000987040987061919198A2F8B308C318E328030E53C24FEFE8E3C8E01870409870B
:200F1C000619EE3395E0FBFA8C2F8E308B318A32200510AA2FAB307C007E008A2F8B308C37
:200F3C00318E32300522E53230E71BC3E4952FFAE49530FBE49531FCE49532FE8A2F8B3038
:200F5C008C318E328002C205D209A93F7E00753300853D82C006C001120B2FD001D00620E8
:200F7C00090BE533C4FCE7FB4CF7198002A7330EB209E52F45304531453270D2893F8E05F3
:200F9C00E53E7003753E01200224200121ED04FEAC3EC3EE9C5015758220C006C005C00472
:200FBC00120ADCD004D005D0061C80E68C3E30050E75822DC005120ADCD005153E8023ED76
:200FDC00602030030E75822BC005120ADCD005153E800F30040C758220C005120ADCD005B5
:200FFC00153E200122AE3E8E041EC3ED9C502B3002047C3080027C208C82C006C005120A27
:20101C00DCD005D00680E0C3ED953E5008E53EC39DF53E8007753E0080028E3EA93F8D0639
:20103C008E051EED6026B20920090A09E7C4540FFD8D3380078705740F5DF533853382C099
:20105C0006C001120AFFD001D00680D4200103020B9EAE3E8E051EED7003020B9E75822009
:18107C00C006120ADCD00680EB8F82120ADC020B9E853482853583220F
:0B1270003C4E4F20464C4F41543E00C6
:18109400AA82AB831210AC6003A380F8C3E5829AF582E5839BF58322C6
:0D00510075814F1210C8E582600302004E59
:1C10AC0020F71430F6148883A88220F507E6A88375830022E280F7E49322E02253
:0410C800758200220B
:00000001FF
